{
  "contractName": "Account",
  "abi": [
    {
      "anonymous": false,
      "inputs": [
        {
          "indexed": true,
          "internalType": "address",
          "name": "accountOwnerAddr",
          "type": "address"
        }
      ],
      "name": "AccountCreated",
      "type": "event"
    },
    {
      "anonymous": false,
      "inputs": [
        {
          "indexed": true,
          "internalType": "address",
          "name": "accountOwnerAddr",
          "type": "address"
        },
        {
          "indexed": false,
          "internalType": "uint256",
          "name": "contributionCount",
          "type": "uint256"
        }
      ],
      "name": "PostCountUpdated",
      "type": "event"
    },
    {
      "anonymous": false,
      "inputs": [
        {
          "indexed": true,
          "internalType": "address",
          "name": "accountOwnerAddr",
          "type": "address"
        },
        {
          "indexed": false,
          "internalType": "uint256",
          "name": "postId",
          "type": "uint256"
        }
      ],
      "name": "PostDeleted",
      "type": "event"
    },
    {
      "anonymous": false,
      "inputs": [
        {
          "indexed": true,
          "internalType": "address",
          "name": "accountOwnerAddr",
          "type": "address"
        }
      ],
      "name": "UserDetailsUpdated",
      "type": "event"
    },
    {
      "inputs": [
        {
          "internalType": "uint256",
          "name": "",
          "type": "uint256"
        }
      ],
      "name": "allAcc",
      "outputs": [
        {
          "internalType": "address",
          "name": "",
          "type": "address"
        }
      ],
      "stateMutability": "view",
      "type": "function",
      "constant": true
    },
    {
      "inputs": [
        {
          "internalType": "uint256",
          "name": "",
          "type": "uint256"
        }
      ],
      "name": "allPosts",
      "outputs": [
        {
          "internalType": "uint256",
          "name": "postId",
          "type": "uint256"
        },
        {
          "internalType": "string",
          "name": "cid",
          "type": "string"
        },
        {
          "internalType": "string",
          "name": "Type",
          "type": "string"
        },
        {
          "internalType": "string",
          "name": "Topic",
          "type": "string"
        },
        {
          "internalType": "string",
          "name": "Genre",
          "type": "string"
        },
        {
          "internalType": "address",
          "name": "Author",
          "type": "address"
        },
        {
          "internalType": "uint256",
          "name": "like",
          "type": "uint256"
        },
        {
          "internalType": "uint256",
          "name": "contribution",
          "type": "uint256"
        },
        {
          "internalType": "uint256",
          "name": "timestamp",
          "type": "uint256"
        }
      ],
      "stateMutability": "view",
      "type": "function",
      "constant": true
    },
    {
      "inputs": [],
      "name": "postCounter",
      "outputs": [
        {
          "internalType": "uint256",
          "name": "",
          "type": "uint256"
        }
      ],
      "stateMutability": "view",
      "type": "function",
      "constant": true
    },
    {
      "inputs": [
        {
          "internalType": "address",
          "name": "",
          "type": "address"
        }
      ],
      "name": "users",
      "outputs": [
        {
          "internalType": "string",
          "name": "name",
          "type": "string"
        },
        {
          "internalType": "address",
          "name": "accountOwnerAddr",
          "type": "address"
        },
        {
          "internalType": "string",
          "name": "profilePicture",
          "type": "string"
        },
        {
          "internalType": "string",
          "name": "Password",
          "type": "string"
        },
        {
          "internalType": "string",
          "name": "bio",
          "type": "string"
        },
        {
          "internalType": "uint256",
          "name": "postCount",
          "type": "uint256"
        },
        {
          "internalType": "uint256",
          "name": "shortStoryCount",
          "type": "uint256"
        },
        {
          "internalType": "uint256",
          "name": "contributionCount",
          "type": "uint256"
        },
        {
          "internalType": "uint256",
          "name": "quoteCount",
          "type": "uint256"
        }
      ],
      "stateMutability": "view",
      "type": "function",
      "constant": true
    },
    {
      "stateMutability": "payable",
      "type": "receive",
      "payable": true
    },
    {
      "inputs": [
        {
          "internalType": "string",
          "name": "_name",
          "type": "string"
        },
        {
          "internalType": "string",
          "name": "_profilePicture",
          "type": "string"
        },
        {
          "internalType": "string",
          "name": "_bio",
          "type": "string"
        },
        {
          "internalType": "string",
          "name": "_password",
          "type": "string"
        }
      ],
      "name": "createAccount",
      "outputs": [],
      "stateMutability": "nonpayable",
      "type": "function"
    },
    {
      "inputs": [],
      "name": "getAllAccounts",
      "outputs": [
        {
          "components": [
            {
              "internalType": "string",
              "name": "name",
              "type": "string"
            },
            {
              "internalType": "address",
              "name": "accountOwnerAddr",
              "type": "address"
            },
            {
              "internalType": "string",
              "name": "profilePicture",
              "type": "string"
            },
            {
              "internalType": "string",
              "name": "bio",
              "type": "string"
            },
            {
              "internalType": "string",
              "name": "Password",
              "type": "string"
            },
            {
              "internalType": "uint256",
              "name": "postCount",
              "type": "uint256"
            },
            {
              "internalType": "uint256",
              "name": "shortStoryCount",
              "type": "uint256"
            },
            {
              "internalType": "uint256",
              "name": "contributionCount",
              "type": "uint256"
            },
            {
              "internalType": "uint256",
              "name": "quoteCount",
              "type": "uint256"
            },
            {
              "internalType": "uint256[]",
              "name": "postDetails",
              "type": "uint256[]"
            }
          ],
          "internalType": "struct Account.AccountDetails[]",
          "name": "",
          "type": "tuple[]"
        }
      ],
      "stateMutability": "view",
      "type": "function",
      "constant": true
    },
    {
      "inputs": [
        {
          "internalType": "string",
          "name": "_name",
          "type": "string"
        },
        {
          "internalType": "string",
          "name": "_profilePicture",
          "type": "string"
        },
        {
          "internalType": "string",
          "name": "_bio",
          "type": "string"
        },
        {
          "internalType": "string",
          "name": "_password",
          "type": "string"
        }
      ],
      "name": "updateUserDetails",
      "outputs": [],
      "stateMutability": "nonpayable",
      "type": "function"
    },
    {
      "inputs": [
        {
          "internalType": "string",
          "name": "_cid",
          "type": "string"
        },
        {
          "internalType": "string",
          "name": "_type",
          "type": "string"
        },
        {
          "internalType": "string",
          "name": "_topic",
          "type": "string"
        },
        {
          "internalType": "string",
          "name": "_genre",
          "type": "string"
        }
      ],
      "name": "addPosts",
      "outputs": [],
      "stateMutability": "nonpayable",
      "type": "function"
    },
    {
      "inputs": [
        {
          "internalType": "address",
          "name": "userAddress",
          "type": "address"
        }
      ],
      "name": "printAccountDetails",
      "outputs": [
        {
          "components": [
            {
              "internalType": "string",
              "name": "name",
              "type": "string"
            },
            {
              "internalType": "address",
              "name": "accountOwnerAddr",
              "type": "address"
            },
            {
              "internalType": "string",
              "name": "profilePicture",
              "type": "string"
            },
            {
              "internalType": "string",
              "name": "bio",
              "type": "string"
            },
            {
              "internalType": "string",
              "name": "Password",
              "type": "string"
            },
            {
              "internalType": "uint256",
              "name": "postCount",
              "type": "uint256"
            },
            {
              "internalType": "uint256",
              "name": "shortStoryCount",
              "type": "uint256"
            },
            {
              "internalType": "uint256",
              "name": "contributionCount",
              "type": "uint256"
            },
            {
              "internalType": "uint256",
              "name": "quoteCount",
              "type": "uint256"
            },
            {
              "internalType": "uint256[]",
              "name": "postDetails",
              "type": "uint256[]"
            }
          ],
          "internalType": "struct Account.AccountDetails",
          "name": "",
          "type": "tuple"
        }
      ],
      "stateMutability": "view",
      "type": "function",
      "constant": true
    },
    {
      "inputs": [
        {
          "internalType": "address",
          "name": "userAddress",
          "type": "address"
        }
      ],
      "name": "getUserMetaData",
      "outputs": [
        {
          "internalType": "string[]",
          "name": "",
          "type": "string[]"
        }
      ],
      "stateMutability": "view",
      "type": "function",
      "constant": true
    },
    {
      "inputs": [
        {
          "internalType": "address",
          "name": "userAdd",
          "type": "address"
        }
      ],
      "name": "incrementContributionCount",
      "outputs": [],
      "stateMutability": "nonpayable",
      "type": "function"
    },
    {
      "inputs": [
        {
          "internalType": "string",
          "name": "_postType",
          "type": "string"
        }
      ],
      "name": "getPostsByType",
      "outputs": [
        {
          "components": [
            {
              "internalType": "uint256",
              "name": "postId",
              "type": "uint256"
            },
            {
              "internalType": "string",
              "name": "cid",
              "type": "string"
            },
            {
              "internalType": "string",
              "name": "Type",
              "type": "string"
            },
            {
              "internalType": "string",
              "name": "Topic",
              "type": "string"
            },
            {
              "internalType": "string",
              "name": "Genre",
              "type": "string"
            },
            {
              "internalType": "address",
              "name": "Author",
              "type": "address"
            },
            {
              "internalType": "uint256",
              "name": "like",
              "type": "uint256"
            },
            {
              "internalType": "uint256",
              "name": "contribution",
              "type": "uint256"
            },
            {
              "internalType": "uint256",
              "name": "timestamp",
              "type": "uint256"
            }
          ],
          "internalType": "struct Account.Posts[]",
          "name": "",
          "type": "tuple[]"
        }
      ],
      "stateMutability": "view",
      "type": "function",
      "constant": true
    },
    {
      "inputs": [
        {
          "internalType": "address",
          "name": "userAddress",
          "type": "address"
        },
        {
          "internalType": "string",
          "name": "_type",
          "type": "string"
        }
      ],
      "name": "getPostsByAcc",
      "outputs": [
        {
          "components": [
            {
              "internalType": "uint256",
              "name": "postId",
              "type": "uint256"
            },
            {
              "internalType": "string",
              "name": "cid",
              "type": "string"
            },
            {
              "internalType": "string",
              "name": "Type",
              "type": "string"
            },
            {
              "internalType": "string",
              "name": "Topic",
              "type": "string"
            },
            {
              "internalType": "string",
              "name": "Genre",
              "type": "string"
            },
            {
              "internalType": "address",
              "name": "Author",
              "type": "address"
            },
            {
              "internalType": "uint256",
              "name": "like",
              "type": "uint256"
            },
            {
              "internalType": "uint256",
              "name": "contribution",
              "type": "uint256"
            },
            {
              "internalType": "uint256",
              "name": "timestamp",
              "type": "uint256"
            }
          ],
          "internalType": "struct Account.Posts[]",
          "name": "",
          "type": "tuple[]"
        }
      ],
      "stateMutability": "view",
      "type": "function",
      "constant": true
    },
    {
      "inputs": [
        {
          "internalType": "uint256",
          "name": "postId",
          "type": "uint256"
        }
      ],
      "name": "deletePost",
      "outputs": [],
      "stateMutability": "nonpayable",
      "type": "function"
    },
    {
      "inputs": [
        {
          "internalType": "uint256",
          "name": "_postId",
          "type": "uint256"
        }
      ],
      "name": "addLike",
      "outputs": [],
      "stateMutability": "nonpayable",
      "type": "function"
    },
    {
      "inputs": [
        {
          "internalType": "uint256",
          "name": "_postId",
          "type": "uint256"
        }
      ],
      "name": "addContribute",
      "outputs": [],
      "stateMutability": "payable",
      "type": "function",
      "payable": true
    }
  ],
  "bytecode": "0x608060405234801561001057600080fd5b506146c3806100206000396000f3fe6080604052600436106100f75760003560e01c80636cdedf471161008a578063a22fe9cf11610059578063a22fe9cf1461035f578063a87430ba1461037b578063d1a296f1146103c0578063fc6f64fb146103e9576100fe565b80636cdedf471461028b57806370a2207c146102b4578063718ce2bc146102f15780638a1bff9e14610336576100fe565b80634ae06098116100c65780634ae06098146101ab578063509bdacd146101d457806352522a8e14610211578063690d87d81461024e576100fe565b806308e93d0a14610103578063094cd5ee1461012e57806309b3d75e14610157578063378a35cd14610182576100fe565b366100fe57005b600080fd5b34801561010f57600080fd5b50610118610426565b6040516101259190613814565b60405180910390f35b34801561013a57600080fd5b5061015560048036038101906101509190613876565b610516565b005b34801561016357600080fd5b5061016c61082f565b60405161017991906138b2565b60405180910390f35b34801561018e57600080fd5b506101a960048036038101906101a49190613876565b610835565b005b3480156101b757600080fd5b506101d260048036038101906101cd9190613a02565b61086a565b005b3480156101e057600080fd5b506101fb60048036038101906101f69190613b05565b610af8565b6040516102089190613bf4565b60405180910390f35b34801561021d57600080fd5b5061023860048036038101906102339190613b05565b610d55565b6040516102459190613d0c565b60405180910390f35b34801561025a57600080fd5b5061027560048036038101906102709190613d2e565b6111ec565b6040516102829190613f26565b60405180910390f35b34801561029757600080fd5b506102b260048036038101906102ad9190613b05565b611b85565b005b3480156102c057600080fd5b506102db60048036038101906102d69190613f48565b611d07565b6040516102e89190613f26565b60405180910390f35b3480156102fd57600080fd5b5061031860048036038101906103139190613876565b612568565b60405161032d99989796959493929190613fea565b60405180910390f35b34801561034257600080fd5b5061035d60048036038101906103589190613a02565b6127f6565b005b61037960048036038101906103749190613876565b6129b6565b005b34801561038757600080fd5b506103a2600480360381019061039d9190613b05565b612b25565b6040516103b799989796959493929190614093565b60405180910390f35b3480156103cc57600080fd5b506103e760048036038101906103e29190613a02565b612db3565b005b3480156103f557600080fd5b50610410600480360381019061040b9190613876565b612fe5565b60405161041d919061413c565b60405180910390f35b60606000600280549050905060008167ffffffffffffffff81111561044e5761044d6138d7565b5b60405190808252806020026020018201604052801561048757816020015b61047461334c565b81526020019060019003908161046c5790505b50905060005b8281101561050d576104dc600282815481106104ac576104ab614157565b5b9060005260206000200160009054906101000a900473ffffffffffffffffffffffffffffffffffffffff16610d55565b8282815181106104ef576104ee614157565b5b60200260200101819052508080610505906141b5565b91505061048d565b50809250505090565b600354811061055a576040517f08c379a000000000000000000000000000000000000000000000000000000000815260040161055190614249565b60405180910390fd5b600060016000838152602001908152602001600020905060008060003373ffffffffffffffffffffffffffffffffffffffff1673ffffffffffffffffffffffffffffffffffffffff16815260200190815260200160002090506105c08160090184613024565b8060050160008154809291906105d590614269565b91905055506106a58260020180546105ec906142c1565b80601f0160208091040260200160405190810160405280929190818152602001828054610618906142c1565b80156106655780601f1061063a57610100808354040283529160200191610665565b820191906000526020600020905b81548152906001019060200180831161064857829003601f168201915b50505050506040518060400160405280600b81526020017f73686f72742073746f72790000000000000000000000000000000000000000008152506130b7565b156106c9578060060160008154809291906106bf90614269565b91905055506106e4565b8060080160008154809291906106de90614269565b91905055505b6040518060200160405280600081525082600101908051906020019061070b9291906133b5565b50600082600001819055506040518060200160405280600081525082600301908051906020019061073d9291906133b5565b50604051806020016040528060008152508260020190805190602001906107659291906133b5565b506040518060200160405280600081525082600401908051906020019061078d9291906133b5565b506000826006018190555060008260050160006101000a81548173ffffffffffffffffffffffffffffffffffffffff021916908373ffffffffffffffffffffffffffffffffffffffff1602179055503373ffffffffffffffffffffffffffffffffffffffff167f4d420356f0bcdde64a4a4dd5ececb57087c4119cf2d72bb1d76e329d38f3c2198460405161082291906138b2565b60405180910390a2505050565b60035481565b6000600160008381526020019081526020016000209050806006016000815480929190610861906141b5565b91905055505050565b600073ffffffffffffffffffffffffffffffffffffffff166000803373ffffffffffffffffffffffffffffffffffffffff1673ffffffffffffffffffffffffffffffffffffffff16815260200190815260200160002060010160009054906101000a900473ffffffffffffffffffffffffffffffffffffffff1673ffffffffffffffffffffffffffffffffffffffff161461093a576040517f08c379a00000000000000000000000000000000000000000000000000000000081526004016109319061433e565b60405180910390fd5b60008060003373ffffffffffffffffffffffffffffffffffffffff1673ffffffffffffffffffffffffffffffffffffffff1681526020019081526020016000209050848160000190805190602001906109949291906133b5565b50338160010160006101000a81548173ffffffffffffffffffffffffffffffffffffffff021916908373ffffffffffffffffffffffffffffffffffffffff160217905550838160020190805190602001906109f09291906133b5565b5082816004019080519060200190610a099291906133b5565b5081816003019080519060200190610a229291906133b5565b50600081600501819055506000816006018190555060008160070181905550600081600801819055506002339080600181540180825580915050600190039060005260206000200160009091909190916101000a81548173ffffffffffffffffffffffffffffffffffffffff021916908373ffffffffffffffffffffffffffffffffffffffff1602179055503373ffffffffffffffffffffffffffffffffffffffff167f805996f252884581e2f74cf3d2b03564d5ec26ccc90850ae12653dc1b72d1fa260405160405180910390a25050505050565b606060008060008473ffffffffffffffffffffffffffffffffffffffff1673ffffffffffffffffffffffffffffffffffffffff16815260200190815260200160002090506000600367ffffffffffffffff811115610b5957610b586138d7565b5b604051908082528060200260200182016040528015610b8c57816020015b6060815260200190600190039081610b775790505b509050816000018054610b9e906142c1565b80601f0160208091040260200160405190810160405280929190818152602001828054610bca906142c1565b8015610c175780601f10610bec57610100808354040283529160200191610c17565b820191906000526020600020905b815481529060010190602001808311610bfa57829003601f168201915b505050505081600081518110610c3057610c2f614157565b5b6020026020010181905250816002018054610c4a906142c1565b80601f0160208091040260200160405190810160405280929190818152602001828054610c76906142c1565b8015610cc35780601f10610c9857610100808354040283529160200191610cc3565b820191906000526020600020905b815481529060010190602001808311610ca657829003601f168201915b505050505081600181518110610cdc57610cdb614157565b5b6020026020010181905250610d2c8260010160009054906101000a900473ffffffffffffffffffffffffffffffffffffffff1673ffffffffffffffffffffffffffffffffffffffff166014613110565b81600281518110610d4057610d3f614157565b5b60200260200101819052508092505050919050565b610d5d61334c565b600073ffffffffffffffffffffffffffffffffffffffff166000808473ffffffffffffffffffffffffffffffffffffffff1673ffffffffffffffffffffffffffffffffffffffff16815260200190815260200160002060010160009054906101000a900473ffffffffffffffffffffffffffffffffffffffff1673ffffffffffffffffffffffffffffffffffffffff1603610e2d576040517f08c379a0000000000000000000000000000000000000000000000000000000008152600401610e24906143aa565b60405180910390fd5b60008060008473ffffffffffffffffffffffffffffffffffffffff1673ffffffffffffffffffffffffffffffffffffffff16815260200190815260200160002090506000816005015467ffffffffffffffff811115610e8f57610e8e6138d7565b5b604051908082528060200260200182016040528015610ebd5781602001602082028036833780820191505090505b50905060005b8260050154811015610f2257826009018181548110610ee557610ee4614157565b5b9060005260206000200154828281518110610f0357610f02614157565b5b6020026020010181815250508080610f1a906141b5565b915050610ec3565b50604051806101400160405280836000018054610f3e906142c1565b80601f0160208091040260200160405190810160405280929190818152602001828054610f6a906142c1565b8015610fb75780601f10610f8c57610100808354040283529160200191610fb7565b820191906000526020600020905b815481529060010190602001808311610f9a57829003601f168201915b505050505081526020018360010160009054906101000a900473ffffffffffffffffffffffffffffffffffffffff1673ffffffffffffffffffffffffffffffffffffffff168152602001836002018054611010906142c1565b80601f016020809104026020016040519081016040528092919081815260200182805461103c906142c1565b80156110895780601f1061105e57610100808354040283529160200191611089565b820191906000526020600020905b81548152906001019060200180831161106c57829003601f168201915b505050505081526020018360040180546110a2906142c1565b80601f01602080910402602001604051908101604052809291908181526020018280546110ce906142c1565b801561111b5780601f106110f05761010080835404028352916020019161111b565b820191906000526020600020905b8154815290600101906020018083116110fe57829003601f168201915b50505050508152602001836003018054611134906142c1565b80601f0160208091040260200160405190810160405280929190818152602001828054611160906142c1565b80156111ad5780601f10611182576101008083540402835291602001916111ad565b820191906000526020600020905b81548152906001019060200180831161119057829003601f168201915b50505050508152602001836005015481526020018360060154815260200183600701548152602001836008015481526020018281525092505050919050565b606060008060008573ffffffffffffffffffffffffffffffffffffffff1673ffffffffffffffffffffffffffffffffffffffff16815260200190815260200160002090506060611271846040518060400160405280600b81526020017f73686f72742073746f72790000000000000000000000000000000000000000008152506130b7565b156116fa576000826006015467ffffffffffffffff811115611296576112956138d7565b5b6040519080825280602002602001820160405280156112cf57816020015b6112bc61343b565b8152602001906001900390816112b45790505b50915060005b83600501548110156116f3576113a9600160008660090184815481106112fe576112fd614157565b5b906000526020600020015481526020019081526020016000206002018054611325906142c1565b80601f0160208091040260200160405190810160405280929190818152602001828054611351906142c1565b801561139e5780601f106113735761010080835404028352916020019161139e565b820191906000526020600020905b81548152906001019060200180831161138157829003601f168201915b5050505050876130b7565b156116e057600160008560090183815481106113c8576113c7614157565b5b906000526020600020015481526020019081526020016000206040518061012001604052908160008201548152602001600182018054611407906142c1565b80601f0160208091040260200160405190810160405280929190818152602001828054611433906142c1565b80156114805780601f1061145557610100808354040283529160200191611480565b820191906000526020600020905b81548152906001019060200180831161146357829003601f168201915b50505050508152602001600282018054611499906142c1565b80601f01602080910402602001604051908101604052809291908181526020018280546114c5906142c1565b80156115125780601f106114e757610100808354040283529160200191611512565b820191906000526020600020905b8154815290600101906020018083116114f557829003601f168201915b5050505050815260200160038201805461152b906142c1565b80601f0160208091040260200160405190810160405280929190818152602001828054611557906142c1565b80156115a45780601f10611579576101008083540402835291602001916115a4565b820191906000526020600020905b81548152906001019060200180831161158757829003601f168201915b505050505081526020016004820180546115bd906142c1565b80601f01602080910402602001604051908101604052809291908181526020018280546115e9906142c1565b80156116365780601f1061160b57610100808354040283529160200191611636565b820191906000526020600020905b81548152906001019060200180831161161957829003601f168201915b505050505081526020016005820160009054906101000a900473ffffffffffffffffffffffffffffffffffffffff1673ffffffffffffffffffffffffffffffffffffffff1673ffffffffffffffffffffffffffffffffffffffff16815260200160068201548152602001600782015481526020016008820154815250508383815181106116c6576116c5614157565b5b602002602001018190525081806116dc906141b5565b9250505b80806116eb906141b5565b9150506112d5565b5050611b7a565b6000826008015467ffffffffffffffff81111561171a576117196138d7565b5b60405190808252806020026020018201604052801561175357816020015b61174061343b565b8152602001906001900390816117385790505b50915060005b8360050154811015611b775761182d6001600086600901848154811061178257611781614157565b5b9060005260206000200154815260200190815260200160002060020180546117a9906142c1565b80601f01602080910402602001604051908101604052809291908181526020018280546117d5906142c1565b80156118225780601f106117f757610100808354040283529160200191611822565b820191906000526020600020905b81548152906001019060200180831161180557829003601f168201915b5050505050876130b7565b15611b64576001600085600901838154811061184c5761184b614157565b5b90600052602060002001548152602001908152602001600020604051806101200160405290816000820154815260200160018201805461188b906142c1565b80601f01602080910402602001604051908101604052809291908181526020018280546118b7906142c1565b80156119045780601f106118d957610100808354040283529160200191611904565b820191906000526020600020905b8154815290600101906020018083116118e757829003601f168201915b5050505050815260200160028201805461191d906142c1565b80601f0160208091040260200160405190810160405280929190818152602001828054611949906142c1565b80156119965780601f1061196b57610100808354040283529160200191611996565b820191906000526020600020905b81548152906001019060200180831161197957829003601f168201915b505050505081526020016003820180546119af906142c1565b80601f01602080910402602001604051908101604052809291908181526020018280546119db906142c1565b8015611a285780601f106119fd57610100808354040283529160200191611a28565b820191906000526020600020905b815481529060010190602001808311611a0b57829003601f168201915b50505050508152602001600482018054611a41906142c1565b80601f0160208091040260200160405190810160405280929190818152602001828054611a6d906142c1565b8015611aba5780601f10611a8f57610100808354040283529160200191611aba565b820191906000526020600020905b815481529060010190602001808311611a9d57829003601f168201915b505050505081526020016005820160009054906101000a900473ffffffffffffffffffffffffffffffffffffffff1673ffffffffffffffffffffffffffffffffffffffff1673ffffffffffffffffffffffffffffffffffffffff1681526020016006820154815260200160078201548152602001600882015481525050838381518110611b4a57611b49614157565b5b60200260200101819052508180611b60906141b5565b9250505b8080611b6f906141b5565b915050611759565b50505b809250505092915050565b600073ffffffffffffffffffffffffffffffffffffffff166000808373ffffffffffffffffffffffffffffffffffffffff1673ffffffffffffffffffffffffffffffffffffffff16815260200190815260200160002060010160009054906101000a900473ffffffffffffffffffffffffffffffffffffffff1673ffffffffffffffffffffffffffffffffffffffff1603611c55576040517f08c379a0000000000000000000000000000000000000000000000000000000008152600401611c4c906143aa565b60405180910390fd5b60008060008373ffffffffffffffffffffffffffffffffffffffff1673ffffffffffffffffffffffffffffffffffffffff1681526020019081526020016000209050806007016000815480929190611cac906141b5565b91905055508173ffffffffffffffffffffffffffffffffffffffff167f0750ce5f0e1d38953dd7799629656af0d3b4cf9ec979edf2f2fce26aa406e1e78260070154604051611cfb91906138b2565b60405180910390a25050565b6060600060035490506000805b82811015611da65784604051602001611d2d9190614406565b6040516020818303038152906040528051906020012060016000838152602001908152602001600020600201604051602001611d6991906144b1565b6040516020818303038152906040528051906020012003611d93578180611d8f906141b5565b9250505b8080611d9e906141b5565b915050611d14565b50611de6846040518060400160405280600381526020017f416c6c00000000000000000000000000000000000000000000000000000000008152506130b7565b15611def578190505b60008167ffffffffffffffff811115611e0b57611e0a6138d7565b5b604051908082528060200260200182016040528015611e4457816020015b611e3161343b565b815260200190600190039081611e295790505b5090506000611e88866040518060400160405280600381526020017f416c6c00000000000000000000000000000000000000000000000000000000008152506130b7565b156121c25760005b848110156121bc57600160008281526020019081526020016000206040518061012001604052908160008201548152602001600182018054611ed1906142c1565b80601f0160208091040260200160405190810160405280929190818152602001828054611efd906142c1565b8015611f4a5780601f10611f1f57610100808354040283529160200191611f4a565b820191906000526020600020905b815481529060010190602001808311611f2d57829003601f168201915b50505050508152602001600282018054611f63906142c1565b80601f0160208091040260200160405190810160405280929190818152602001828054611f8f906142c1565b8015611fdc5780601f10611fb157610100808354040283529160200191611fdc565b820191906000526020600020905b815481529060010190602001808311611fbf57829003601f168201915b50505050508152602001600382018054611ff5906142c1565b80601f0160208091040260200160405190810160405280929190818152602001828054612021906142c1565b801561206e5780601f106120435761010080835404028352916020019161206e565b820191906000526020600020905b81548152906001019060200180831161205157829003601f168201915b50505050508152602001600482018054612087906142c1565b80601f01602080910402602001604051908101604052809291908181526020018280546120b3906142c1565b80156121005780601f106120d557610100808354040283529160200191612100565b820191906000526020600020905b8154815290600101906020018083116120e357829003601f168201915b505050505081526020016005820160009054906101000a900473ffffffffffffffffffffffffffffffffffffffff1673ffffffffffffffffffffffffffffffffffffffff1673ffffffffffffffffffffffffffffffffffffffff16815260200160068201548152602001600782015481526020016008820154815250508383815181106121905761218f614157565b5b602002602001018190525081806121a6906141b5565b92505080806121b4906141b5565b915050611e90565b5061255c565b60005b8481101561255a57866040516020016121de9190614406565b604051602081830303815290604052805190602001206001600083815260200190815260200160002060020160405160200161221a91906144b1565b60405160208183030381529060405280519060200120036125475760016000828152602001908152602001600020604051806101200160405290816000820154815260200160018201805461226e906142c1565b80601f016020809104026020016040519081016040528092919081815260200182805461229a906142c1565b80156122e75780601f106122bc576101008083540402835291602001916122e7565b820191906000526020600020905b8154815290600101906020018083116122ca57829003601f168201915b50505050508152602001600282018054612300906142c1565b80601f016020809104026020016040519081016040528092919081815260200182805461232c906142c1565b80156123795780601f1061234e57610100808354040283529160200191612379565b820191906000526020600020905b81548152906001019060200180831161235c57829003601f168201915b50505050508152602001600382018054612392906142c1565b80601f01602080910402602001604051908101604052809291908181526020018280546123be906142c1565b801561240b5780601f106123e05761010080835404028352916020019161240b565b820191906000526020600020905b8154815290600101906020018083116123ee57829003601f168201915b50505050508152602001600482018054612424906142c1565b80601f0160208091040260200160405190810160405280929190818152602001828054612450906142c1565b801561249d5780601f106124725761010080835404028352916020019161249d565b820191906000526020600020905b81548152906001019060200180831161248057829003601f168201915b505050505081526020016005820160009054906101000a900473ffffffffffffffffffffffffffffffffffffffff1673ffffffffffffffffffffffffffffffffffffffff1673ffffffffffffffffffffffffffffffffffffffff168152602001600682015481526020016007820154815260200160088201548152505083838151811061252d5761252c614157565b5b60200260200101819052508180612543906141b5565b9250505b8080612552906141b5565b9150506121c5565b505b81945050505050919050565b6001602052806000526040600020600091509050806000015490806001018054612591906142c1565b80601f01602080910402602001604051908101604052809291908181526020018280546125bd906142c1565b801561260a5780601f106125df5761010080835404028352916020019161260a565b820191906000526020600020905b8154815290600101906020018083116125ed57829003601f168201915b50505050509080600201805461261f906142c1565b80601f016020809104026020016040519081016040528092919081815260200182805461264b906142c1565b80156126985780601f1061266d57610100808354040283529160200191612698565b820191906000526020600020905b81548152906001019060200180831161267b57829003601f168201915b5050505050908060030180546126ad906142c1565b80601f01602080910402602001604051908101604052809291908181526020018280546126d9906142c1565b80156127265780601f106126fb57610100808354040283529160200191612726565b820191906000526020600020905b81548152906001019060200180831161270957829003601f168201915b50505050509080600401805461273b906142c1565b80601f0160208091040260200160405190810160405280929190818152602001828054612767906142c1565b80156127b45780601f10612789576101008083540402835291602001916127b4565b820191906000526020600020905b81548152906001019060200180831161279757829003601f168201915b5050505050908060050160009054906101000a900473ffffffffffffffffffffffffffffffffffffffff16908060060154908060070154908060080154905089565b600073ffffffffffffffffffffffffffffffffffffffff166000803373ffffffffffffffffffffffffffffffffffffffff1673ffffffffffffffffffffffffffffffffffffffff16815260200190815260200160002060010160009054906101000a900473ffffffffffffffffffffffffffffffffffffffff1673ffffffffffffffffffffffffffffffffffffffff16036128c6576040517f08c379a00000000000000000000000000000000000000000000000000000000081526004016128bd906143aa565b60405180910390fd5b60008060003373ffffffffffffffffffffffffffffffffffffffff1673ffffffffffffffffffffffffffffffffffffffff1681526020019081526020016000209050848160000190805190602001906129209291906133b5565b50838160020190805190602001906129399291906133b5565b50828160040190805190602001906129529291906133b5565b508181600301908051906020019061296b9291906133b5565b503373ffffffffffffffffffffffffffffffffffffffff167f895d33a2317705f98b32fa37521cba6bbf60f3293f676d7033075bafdd1089bf60405160405180910390a25050505050565b60008060003373ffffffffffffffffffffffffffffffffffffffff1673ffffffffffffffffffffffffffffffffffffffff1681526020019081526020016000209050600060016000848152602001908152602001600020905060008160050160009054906101000a900473ffffffffffffffffffffffffffffffffffffffff1673ffffffffffffffffffffffffffffffffffffffff1634604051612a59906144f9565b60006040518083038185875af1925050503d8060008114612a96576040519150601f19603f3d011682016040523d82523d6000602084013e612a9b565b606091505b505090508015612b1f576000604051806040016040528086815260200134815250905083600a018190806001815401808255809150506001900390600052602060002090600202016000909190919091506000820151816000015560208201518160010155505034836007016000828254612b16919061450e565b92505081905550505b50505050565b6000602052806000526040600020600091509050806000018054612b48906142c1565b80601f0160208091040260200160405190810160405280929190818152602001828054612b74906142c1565b8015612bc15780601f10612b9657610100808354040283529160200191612bc1565b820191906000526020600020905b815481529060010190602001808311612ba457829003601f168201915b5050505050908060010160009054906101000a900473ffffffffffffffffffffffffffffffffffffffff1690806002018054612bfc906142c1565b80601f0160208091040260200160405190810160405280929190818152602001828054612c28906142c1565b8015612c755780601f10612c4a57610100808354040283529160200191612c75565b820191906000526020600020905b815481529060010190602001808311612c5857829003601f168201915b505050505090806003018054612c8a906142c1565b80601f0160208091040260200160405190810160405280929190818152602001828054612cb6906142c1565b8015612d035780601f10612cd857610100808354040283529160200191612d03565b820191906000526020600020905b815481529060010190602001808311612ce657829003601f168201915b505050505090806004018054612d18906142c1565b80601f0160208091040260200160405190810160405280929190818152602001828054612d44906142c1565b8015612d915780601f10612d6657610100808354040283529160200191612d91565b820191906000526020600020905b815481529060010190602001808311612d7457829003601f168201915b5050505050908060050154908060060154908060070154908060080154905089565b6000600354905060036000815480929190612dcd906141b5565b9190505550600060016000838152602001908152602001600020905081816000018190555085816001019080519060200190612e0a9291906133b5565b5084816002019080519060200190612e239291906133b5565b5083816003019080519060200190612e3c9291906133b5565b5082816004019080519060200190612e559291906133b5565b5060008160060181905550338160050160006101000a81548173ffffffffffffffffffffffffffffffffffffffff021916908373ffffffffffffffffffffffffffffffffffffffff16021790555042816008018190555060008060003373ffffffffffffffffffffffffffffffffffffffff1673ffffffffffffffffffffffffffffffffffffffff1681526020019081526020016000209050806005016000815480929190612f03906141b5565b9190505550612f47866040518060400160405280600b81526020017f73686f72742073746f72790000000000000000000000000000000000000000008152506130b7565b15612f965780600901839080600181540180825580915050600190039060005260206000200160009091909190915055806006016000815480929190612f8c906141b5565b9190505550612fdc565b80600901839080600181540180825580915050600190039060005260206000200160009091909190915055806008016000815480929190612fd6906141b5565b91905055505b50505050505050565b60028181548110612ff557600080fd5b906000526020600020016000915054906101000a900473ffffffffffffffffffffffffffffffffffffffff1681565b600182805490506130359190614564565b81101561308c57816001838054905061304e9190614564565b8154811061305f5761305e614157565b5b906000526020600020015482828154811061307d5761307c614157565b5b90600052602060002001819055505b8180548061309d5761309c614598565b5b600190038181906000526020600020016000905590555050565b6000816040516020016130ca9190614406565b60405160208183030381529060405280519060200120836040516020016130f19190614406565b6040516020818303038152906040528051906020012014905092915050565b60606000600283600261312391906145c7565b61312d919061450e565b67ffffffffffffffff811115613146576131456138d7565b5b6040519080825280601f01601f1916602001820160405280156131785781602001600182028036833780820191505090505b5090507f3000000000000000000000000000000000000000000000000000000000000000816000815181106131b0576131af614157565b5b60200101907effffffffffffffffffffffffffffffffffffffffffffffffffffffffffffff1916908160001a9053507f78000000000000000000000000000000000000000000000000000000000000008160018151811061321457613213614157565b5b60200101907effffffffffffffffffffffffffffffffffffffffffffffffffffffffffffff1916908160001a9053506000600184600261325491906145c7565b61325e919061450e565b90505b60018111156132fe577f3031323334353637383961626364656600000000000000000000000000000000600f8616601081106132a05761329f614157565b5b1a60f81b8282815181106132b7576132b6614157565b5b60200101907effffffffffffffffffffffffffffffffffffffffffffffffffffffffffffff1916908160001a905350600485901c9450806132f790614269565b9050613261565b5060008414613342576040517f08c379a00000000000000000000000000000000000000000000000000000000081526004016133399061466d565b60405180910390fd5b8091505092915050565b60405180610140016040528060608152602001600073ffffffffffffffffffffffffffffffffffffffff16815260200160608152602001606081526020016060815260200160008152602001600081526020016000815260200160008152602001606081525090565b8280546133c1906142c1565b90600052602060002090601f0160209004810192826133e3576000855561342a565b82601f106133fc57805160ff191683800117855561342a565b8280016001018555821561342a579182015b8281111561342957825182559160200191906001019061340e565b5b509050613437919061349d565b5090565b6040518061012001604052806000815260200160608152602001606081526020016060815260200160608152602001600073ffffffffffffffffffffffffffffffffffffffff1681526020016000815260200160008152602001600081525090565b5b808211156134b657600081600090555060010161349e565b5090565b600081519050919050565b600082825260208201905092915050565b6000819050602082019050919050565b600081519050919050565b600082825260208201905092915050565b60005b83811015613520578082015181840152602081019050613505565b8381111561352f576000848401525b50505050565b6000601f19601f8301169050919050565b6000613551826134e6565b61355b81856134f1565b935061356b818560208601613502565b61357481613535565b840191505092915050565b600073ffffffffffffffffffffffffffffffffffffffff82169050919050565b60006135aa8261357f565b9050919050565b6135ba8161359f565b82525050565b6000819050919050565b6135d3816135c0565b82525050565b600081519050919050565b600082825260208201905092915050565b6000819050602082019050919050565b600061361183836135ca565b60208301905092915050565b6000602082019050919050565b6000613635826135d9565b61363f81856135e4565b935061364a836135f5565b8060005b8381101561367b5781516136628882613605565b975061366d8361361d565b92505060018101905061364e565b5085935050505092915050565b60006101408301600083015184820360008601526136a68282613546565b91505060208301516136bb60208601826135b1565b50604083015184820360408601526136d38282613546565b915050606083015184820360608601526136ed8282613546565b915050608083015184820360808601526137078282613546565b91505060a083015161371c60a08601826135ca565b5060c083015161372f60c08601826135ca565b5060e083015161374260e08601826135ca565b506101008301516137576101008601826135ca565b50610120830151848203610120860152613771828261362a565b9150508091505092915050565b600061378a8383613688565b905092915050565b6000602082019050919050565b60006137aa826134ba565b6137b481856134c5565b9350836020820285016137c6856134d6565b8060005b8581101561380257848403895281516137e3858261377e565b94506137ee83613792565b925060208a019950506001810190506137ca565b50829750879550505050505092915050565b6000602082019050818103600083015261382e818461379f565b905092915050565b6000604051905090565b600080fd5b600080fd5b613853816135c0565b811461385e57600080fd5b50565b6000813590506138708161384a565b92915050565b60006020828403121561388c5761388b613840565b5b600061389a84828501613861565b91505092915050565b6138ac816135c0565b82525050565b60006020820190506138c760008301846138a3565b92915050565b600080fd5b600080fd5b7f4e487b7100000000000000000000000000000000000000000000000000000000600052604160045260246000fd5b61390f82613535565b810181811067ffffffffffffffff8211171561392e5761392d6138d7565b5b80604052505050565b6000613941613836565b905061394d8282613906565b919050565b600067ffffffffffffffff82111561396d5761396c6138d7565b5b61397682613535565b9050602081019050919050565b82818337600083830152505050565b60006139a56139a084613952565b613937565b9050828152602081018484840111156139c1576139c06138d2565b5b6139cc848285613983565b509392505050565b600082601f8301126139e9576139e86138cd565b5b81356139f9848260208601613992565b91505092915050565b60008060008060808587031215613a1c57613a1b613840565b5b600085013567ffffffffffffffff811115613a3a57613a39613845565b5b613a46878288016139d4565b945050602085013567ffffffffffffffff811115613a6757613a66613845565b5b613a73878288016139d4565b935050604085013567ffffffffffffffff811115613a9457613a93613845565b5b613aa0878288016139d4565b925050606085013567ffffffffffffffff811115613ac157613ac0613845565b5b613acd878288016139d4565b91505092959194509250565b613ae28161359f565b8114613aed57600080fd5b50565b600081359050613aff81613ad9565b92915050565b600060208284031215613b1b57613b1a613840565b5b6000613b2984828501613af0565b91505092915050565b600081519050919050565b600082825260208201905092915050565b6000819050602082019050919050565b6000613b6a8383613546565b905092915050565b6000602082019050919050565b6000613b8a82613b32565b613b948185613b3d565b935083602082028501613ba685613b4e565b8060005b85811015613be25784840389528151613bc38582613b5e565b9450613bce83613b72565b925060208a01995050600181019050613baa565b50829750879550505050505092915050565b60006020820190508181036000830152613c0e8184613b7f565b905092915050565b6000610140830160008301518482036000860152613c348282613546565b9150506020830151613c4960208601826135b1565b5060408301518482036040860152613c618282613546565b91505060608301518482036060860152613c7b8282613546565b91505060808301518482036080860152613c958282613546565b91505060a0830151613caa60a08601826135ca565b5060c0830151613cbd60c08601826135ca565b5060e0830151613cd060e08601826135ca565b50610100830151613ce56101008601826135ca565b50610120830151848203610120860152613cff828261362a565b9150508091505092915050565b60006020820190508181036000830152613d268184613c16565b905092915050565b60008060408385031215613d4557613d44613840565b5b6000613d5385828601613af0565b925050602083013567ffffffffffffffff811115613d7457613d73613845565b5b613d80858286016139d4565b9150509250929050565b600081519050919050565b600082825260208201905092915050565b6000819050602082019050919050565b600061012083016000830151613dcf60008601826135ca565b5060208301518482036020860152613de78282613546565b91505060408301518482036040860152613e018282613546565b91505060608301518482036060860152613e1b8282613546565b91505060808301518482036080860152613e358282613546565b91505060a0830151613e4a60a08601826135b1565b5060c0830151613e5d60c08601826135ca565b5060e0830151613e7060e08601826135ca565b50610100830151613e856101008601826135ca565b508091505092915050565b6000613e9c8383613db6565b905092915050565b6000602082019050919050565b6000613ebc82613d8a565b613ec68185613d95565b935083602082028501613ed885613da6565b8060005b85811015613f145784840389528151613ef58582613e90565b9450613f0083613ea4565b925060208a01995050600181019050613edc565b50829750879550505050505092915050565b60006020820190508181036000830152613f408184613eb1565b905092915050565b600060208284031215613f5e57613f5d613840565b5b600082013567ffffffffffffffff811115613f7c57613f7b613845565b5b613f88848285016139d4565b91505092915050565b600082825260208201905092915050565b6000613fad826134e6565b613fb78185613f91565b9350613fc7818560208601613502565b613fd081613535565b840191505092915050565b613fe48161359f565b82525050565b600061012082019050614000600083018c6138a3565b8181036020830152614012818b613fa2565b90508181036040830152614026818a613fa2565b9050818103606083015261403a8189613fa2565b9050818103608083015261404e8188613fa2565b905061405d60a0830187613fdb565b61406a60c08301866138a3565b61407760e08301856138a3565b6140856101008301846138a3565b9a9950505050505050505050565b60006101208201905081810360008301526140ae818c613fa2565b90506140bd602083018b613fdb565b81810360408301526140cf818a613fa2565b905081810360608301526140e38189613fa2565b905081810360808301526140f78188613fa2565b905061410660a08301876138a3565b61411360c08301866138a3565b61412060e08301856138a3565b61412e6101008301846138a3565b9a9950505050505050505050565b60006020820190506141516000830184613fdb565b92915050565b7f4e487b7100000000000000000000000000000000000000000000000000000000600052603260045260246000fd5b7f4e487b7100000000000000000000000000000000000000000000000000000000600052601160045260246000fd5b60006141c0826135c0565b91507fffffffffffffffffffffffffffffffffffffffffffffffffffffffffffffffff82036141f2576141f1614186565b5b600182019050919050565b7f496e76616c696420706f73742049440000000000000000000000000000000000600082015250565b6000614233600f83613f91565b915061423e826141fd565b602082019050919050565b6000602082019050818103600083015261426281614226565b9050919050565b6000614274826135c0565b91506000820361428757614286614186565b5b600182039050919050565b7f4e487b7100000000000000000000000000000000000000000000000000000000600052602260045260246000fd5b600060028204905060018216806142d957607f821691505b6020821081036142ec576142eb614292565b5b50919050565b7f4163636f756e7420616c72656164792065786973747300000000000000000000600082015250565b6000614328601683613f91565b9150614333826142f2565b602082019050919050565b600060208201905081810360008301526143578161431b565b9050919050565b7f4163636f756e7420646f6573206e6f7420657869737400000000000000000000600082015250565b6000614394601683613f91565b915061439f8261435e565b602082019050919050565b600060208201905081810360008301526143c381614387565b9050919050565b600081905092915050565b60006143e0826134e6565b6143ea81856143ca565b93506143fa818560208601613502565b80840191505092915050565b600061441282846143d5565b915081905092915050565b60008190508160005260206000209050919050565b6000815461443f816142c1565b61444981866143ca565b945060018216600081146144645760018114614475576144a8565b60ff198316865281860193506144a8565b61447e8561441d565b60005b838110156144a057815481890152600182019150602081019050614481565b838801955050505b50505092915050565b60006144bd8284614432565b915081905092915050565b600081905092915050565b50565b60006144e36000836144c8565b91506144ee826144d3565b600082019050919050565b6000614504826144d6565b9150819050919050565b6000614519826135c0565b9150614524836135c0565b9250827fffffffffffffffffffffffffffffffffffffffffffffffffffffffffffffffff0382111561455957614558614186565b5b828201905092915050565b600061456f826135c0565b915061457a836135c0565b92508282101561458d5761458c614186565b5b828203905092915050565b7f4e487b7100000000000000000000000000000000000000000000000000000000600052603160045260246000fd5b60006145d2826135c0565b91506145dd836135c0565b9250817fffffffffffffffffffffffffffffffffffffffffffffffffffffffffffffffff048311821515161561461657614615614186565b5b828202905092915050565b7f537472696e67733a20686578206c656e67746820696e73756666696369656e74600082015250565b6000614657602083613f91565b915061466282614621565b602082019050919050565b600060208201905081810360008301526146868161464a565b905091905056fea26469706673582212208e444ac18cd411651e1276c58ded70149292906e8341ec1cd21d6af80a80efec64736f6c634300080d0033",
  "immutableReferences": {},
  "source": "// SPDX-License-Identifier: MIT\r\npragma solidity ^0.8.0;\r\nimport \"@openzeppelin/contracts/utils/Strings.sol\";\r\ncontract Account {\r\n    struct Contribute{\r\n        uint256 postId;\r\n        uint256 amount;\r\n    }\r\n\r\n    struct User {\r\n        string name;\r\n        address accountOwnerAddr;\r\n        string profilePicture;\r\n        string Password;\r\n        string bio;\r\n        uint256 postCount;\r\n        uint256 shortStoryCount;\r\n        uint256 contributionCount;\r\n        uint256 quoteCount;\r\n        uint256[] posts;\r\n        Contribute[] amountContributed;\r\n    }\r\n\r\n    struct Posts {\r\n        uint256 postId;\r\n        string cid;\r\n        string Type;\r\n        string Topic;\r\n        string Genre;\r\n        address Author;\r\n        uint256 like;\r\n        uint256 contribution;\r\n        uint256 timestamp;\r\n    }\r\n\r\n   \r\n    mapping(address => User) public users;\r\n    mapping(uint256 => Posts) public allPosts;\r\n    address[] public allAcc;\r\n    uint256 public postCounter;\r\n\r\n    event AccountCreated(address indexed accountOwnerAddr);\r\n    event UserDetailsUpdated(address indexed accountOwnerAddr);\r\n    event PostCountUpdated(address indexed accountOwnerAddr, uint256 contributionCount);\r\n    event PostDeleted(address indexed accountOwnerAddr, uint256 postId);\r\n\r\n    function createAccount(string memory _name, string memory _profilePicture, string memory _bio, string memory _password) external {\r\n        require(users[msg.sender].accountOwnerAddr == address(0), \"Account already exists\");\r\n\r\n        User storage newUser = users[msg.sender];\r\n        newUser.name = _name;\r\n        newUser.accountOwnerAddr = msg.sender;\r\n        newUser.profilePicture = _profilePicture;\r\n        newUser.bio = _bio;\r\n        newUser.Password = _password;\r\n        newUser.postCount = 0;\r\n        newUser.shortStoryCount = 0;\r\n        newUser.contributionCount = 0;\r\n        newUser.quoteCount = 0;\r\n        allAcc.push(msg.sender);\r\n        emit AccountCreated(msg.sender);\r\n    }\r\n\r\n    struct AccountDetails {\r\n    string name;\r\n    address accountOwnerAddr;\r\n    string profilePicture;\r\n    string bio;\r\n    string Password;\r\n    uint256 postCount;\r\n    uint256 shortStoryCount;\r\n    uint256 contributionCount;\r\n    uint256 quoteCount;\r\n    uint256[] postDetails;\r\n    \r\n    \r\n}\r\n\r\n  function getAllAccounts() external view returns (AccountDetails[] memory) {\r\n    uint256 totalAccounts = allAcc.length;\r\n    AccountDetails[] memory allDetails = new AccountDetails[](totalAccounts);\r\n\r\n    for (uint256 i = 0; i < totalAccounts; i++) {\r\n        allDetails[i] = printAccountDetails(allAcc[i]);\r\n    }\r\n\r\n    return allDetails;\r\n}\r\n\r\n    function updateUserDetails(string memory _name, string memory _profilePicture, string memory _bio,string memory _password) external {\r\n        require(users[msg.sender].accountOwnerAddr != address(0), \"Account does not exist\");\r\n\r\n        User storage currentUser = users[msg.sender];\r\n        currentUser.name = _name;\r\n        currentUser.profilePicture = _profilePicture;\r\n        currentUser.bio = _bio;\r\n        currentUser.Password = _password;\r\n\r\n        emit UserDetailsUpdated(msg.sender);\r\n    }\r\n\r\n   function addPosts(string memory _cid, string memory _type, string memory _topic, string memory _genre) external {\r\n        uint256 newPostId = postCounter; \r\n        postCounter++; \r\n\r\n        Posts storage newPost = allPosts[newPostId];\r\n        newPost.postId = newPostId;\r\n        newPost.cid = _cid;\r\n        newPost.Type = _type;\r\n        newPost.Topic = _topic;\r\n        newPost.Genre = _genre;\r\n        newPost.like = 0;\r\n        newPost.Author = msg.sender;\r\n        newPost.timestamp = block.timestamp; \r\n        User storage currentUser = users[msg.sender];\r\n        currentUser.postCount++;\r\n        if (compareStrings(_type, \"short story\")) {\r\n            currentUser.posts.push(newPostId);\r\n            currentUser.shortStoryCount++;\r\n        } else {\r\n            currentUser.posts.push(newPostId);\r\n            currentUser.quoteCount++;\r\n        }\r\n\r\n}\r\n\r\n    \r\n    function printAccountDetails(address userAddress) public view returns (AccountDetails memory) {\r\n    require(users[userAddress].accountOwnerAddr != address(0), \"Account does not exist\");\r\n\r\n    User storage user = users[userAddress];\r\n\r\n    uint256[] memory postDetailsTemp = new uint256[](user.postCount);\r\n    for (uint256 i = 0; i < user.postCount; i++) {\r\n        postDetailsTemp[i] = user.posts[i];\r\n    }\r\n\r\n\r\n     return AccountDetails({\r\n        name: user.name,\r\n        accountOwnerAddr: user.accountOwnerAddr,\r\n        profilePicture: user.profilePicture,\r\n        bio: user.bio,\r\n        Password: user.Password,\r\n        postCount: user.postCount,\r\n        shortStoryCount: user.shortStoryCount,\r\n        contributionCount: user.contributionCount,\r\n        quoteCount: user.quoteCount,\r\n        postDetails:postDetailsTemp\r\n    });\r\n}\r\n\r\nfunction getUserMetaData(address userAddress) public view returns (string[] memory) {\r\n    User storage user = users[userAddress];\r\n    string[] memory metaData = new string[](3);\r\n    metaData[0] = user.name;\r\n    metaData[1] = user.profilePicture;\r\n    metaData[2] = Strings.toHexString(uint256(uint160(user.accountOwnerAddr)), 20);\r\n    return metaData;\r\n}\r\n\r\n\r\nfunction compareStrings(string memory a, string memory b) internal pure returns (bool) \r\n{\r\n    return keccak256(abi.encodePacked(a)) == keccak256(abi.encodePacked(b));\r\n}\r\n\r\n\r\nfunction incrementContributionCount(address userAdd) external {\r\n    require(users[userAdd].accountOwnerAddr != address(0), \"Account does not exist\");\r\n\r\n    User storage currentUser = users[userAdd];\r\n    currentUser.contributionCount++;\r\n    emit PostCountUpdated(userAdd, currentUser.contributionCount);\r\n}\r\n\r\nfunction getPostsByType(string memory _postType) external view returns (Posts[] memory) {\r\n        uint256 totalPosts = postCounter;\r\n        uint256 matchingPostsCount = 0;\r\n        \r\n        for (uint256 i = 0; i < totalPosts; i++) {\r\n            if (keccak256(abi.encodePacked(allPosts[i].Type)) == keccak256(abi.encodePacked(_postType))) {\r\n                matchingPostsCount++;\r\n            }\r\n        }\r\n        if(compareStrings(_postType, \"All\"))\r\n        {\r\n            matchingPostsCount = totalPosts;\r\n        }\r\n        Posts[] memory matchingPosts = new Posts[](matchingPostsCount);\r\n        uint256 matchingIndex = 0;\r\n        if(compareStrings(_postType, \"All\"))\r\n        {\r\n            for (uint256 i = 0; i < totalPosts; i++) {\r\n                matchingPosts[matchingIndex] = allPosts[i];\r\n                matchingIndex++;\r\n            }\r\n        }\r\n        else \r\n        {\r\n            for (uint256 i = 0; i < totalPosts; i++) {\r\n            if (keccak256(abi.encodePacked(allPosts[i].Type)) == keccak256(abi.encodePacked(_postType))) {\r\n                matchingPosts[matchingIndex] = allPosts[i];\r\n                matchingIndex++;\r\n            }\r\n            }\r\n        }\r\n        \r\n\r\n        return matchingPosts;\r\n}\r\n\r\nfunction getPostsByAcc(address userAddress,string  memory _type) external view returns(Posts[] memory){\r\n    User storage currentUser = users[userAddress];\r\n    Posts[] memory typePosts;\r\n    if(compareStrings(_type, \"short story\"))\r\n    {\r\n        uint256 typePostCount = 0;\r\n        typePosts = new Posts[](currentUser.shortStoryCount);\r\n        for(uint256 i=0;i < currentUser.postCount;i++)\r\n        {\r\n             if(compareStrings(allPosts[currentUser.posts[i]].Type,_type))\r\n             {\r\n                typePosts[typePostCount] = allPosts[currentUser.posts[i]];\r\n                typePostCount++;\r\n             }\r\n        }\r\n    }\r\n    else \r\n    {\r\n        uint256 typePostCount = 0;\r\n        typePosts = new Posts[](currentUser.quoteCount);\r\n        for(uint256 i=0;i < currentUser.postCount;i++)\r\n        {\r\n             if(compareStrings(allPosts[currentUser.posts[i]].Type,_type))\r\n             {\r\n                typePosts[typePostCount] = allPosts[currentUser.posts[i]];\r\n                typePostCount++;\r\n             }\r\n        }\r\n    }\r\n    return typePosts;\r\n}\r\n\r\nfunction deletePost(uint256 postId) external {\r\n        require(postId < postCounter, \"Invalid post ID\");\r\n\r\n        Posts storage postToDelete = allPosts[postId];\r\n        // require(postToDelete.Author == msg.sender, \"You are not the author of this post\");\r\n\r\n        // Delete post from user's posts\r\n        User storage currentUser = users[msg.sender];\r\n        deleteFromArray(currentUser.posts, postId);\r\n        currentUser.postCount--;\r\n        if(compareStrings(postToDelete.Type,\"short story\"))\r\n        {\r\n            currentUser.shortStoryCount--;\r\n        }else {\r\n            currentUser.quoteCount--;\r\n        }\r\n        // Delete post from allPosts\r\n        // deleteFromMapping(allPosts, postId);\r\n        postToDelete.cid = \"\";\r\n        postToDelete.postId = 0;\r\n        postToDelete.Topic = \"\";\r\n        postToDelete.Type =\"\";\r\n        postToDelete.Genre=\"\";\r\n        postToDelete.like=0;\r\n        postToDelete.Author=address(0);\r\n        emit PostDeleted(msg.sender, postId);\r\n    }\r\n\r\n    // Function to delete an element from an array\r\n    function deleteFromArray(uint256[] storage array, uint256 index) internal {\r\n        // require(index < array.length, \"Index out of bounds\");\r\n        if (index < array.length - 1) {\r\n            array[index] = array[array.length - 1];\r\n        }\r\n        array.pop();\r\n    }\r\n    \r\n    function addLike(uint256 _postId) external\r\n    {\r\n        Posts storage post = allPosts[_postId];\r\n        post.like++;\r\n        \r\n    } \r\n\r\n     receive() external payable {\r\n        // Optional: You can include logic to handle the received Ether\r\n    }\r\n\r\n  function addContribute(uint256 _postId) public payable {\r\n    User storage accountSending = users[msg.sender];\r\n    Posts storage post = allPosts[_postId];\r\n    (bool sent,) = payable(post.Author).call{value: msg.value}(\"\");\r\n    if(sent)\r\n    {\r\n        Contribute memory ethSend = Contribute({\r\n        postId: _postId,\r\n        amount: msg.value\r\n        });\r\n        accountSending.amountContributed.push(ethSend);\r\n        post.contribution += msg.value;\r\n    }\r\n\r\n}\r\n    \r\n    \r\n\r\n}\r\n",
  "sourcePath": "C:\\Users\\laksh\\Downloads\\StoryBook_App\\Backend\\contracts\\Account.sol",
  "compiler": {
    "name": "solc",
    "version": "0.8.13+commit.abaa5c0e.Emscripten.clang"
  },
  "schemaVersion": "3.4.16",
  "updatedAt": "2024-04-01T03:26:40.425Z",
  "networkType": "ethereum",
  "devdoc": {
    "kind": "dev",
    "methods": {},
    "version": 1
  },
  "userdoc": {
    "kind": "user",
    "methods": {},
    "version": 1
  }
}