{
  "contractName": "crowdFunding",
  "abi": [
    {
      "anonymous": false,
      "inputs": [
        {
          "indexed": false,
          "internalType": "uint256",
          "name": "crowdFundNo",
          "type": "uint256"
        },
        {
          "indexed": false,
          "internalType": "uint256",
          "name": "storyNo",
          "type": "uint256"
        },
        {
          "indexed": false,
          "internalType": "uint256",
          "name": "chapterNo",
          "type": "uint256"
        },
        {
          "indexed": false,
          "internalType": "uint256",
          "name": "target",
          "type": "uint256"
        },
        {
          "indexed": false,
          "internalType": "uint256",
          "name": "deadline",
          "type": "uint256"
        },
        {
          "components": [
            {
              "internalType": "uint256",
              "name": "optionNo",
              "type": "uint256"
            },
            {
              "internalType": "string",
              "name": "cid",
              "type": "string"
            },
            {
              "internalType": "address",
              "name": "writer",
              "type": "address"
            },
            {
              "internalType": "address[]",
              "name": "donators",
              "type": "address[]"
            },
            {
              "internalType": "uint256[]",
              "name": "donations",
              "type": "uint256[]"
            },
            {
              "internalType": "uint256",
              "name": "amtCollected",
              "type": "uint256"
            }
          ],
          "indexed": false,
          "internalType": "struct crowdFunding.option[]",
          "name": "options",
          "type": "tuple[]"
        }
      ],
      "name": "CrowdFundCreated",
      "type": "event"
    },
    {
      "anonymous": false,
      "inputs": [
        {
          "indexed": false,
          "internalType": "uint256",
          "name": "crowdFundNo",
          "type": "uint256"
        },
        {
          "indexed": false,
          "internalType": "uint256",
          "name": "optionNo",
          "type": "uint256"
        },
        {
          "indexed": false,
          "internalType": "string",
          "name": "cid",
          "type": "string"
        },
        {
          "indexed": false,
          "internalType": "address",
          "name": "writer",
          "type": "address"
        },
        {
          "indexed": false,
          "internalType": "uint256",
          "name": "amtCollected",
          "type": "uint256"
        }
      ],
      "name": "OptionCreated",
      "type": "event"
    },
    {
      "anonymous": false,
      "inputs": [
        {
          "indexed": false,
          "internalType": "uint256",
          "name": "storyNo",
          "type": "uint256"
        },
        {
          "indexed": false,
          "internalType": "address",
          "name": "accountOwnerAddr",
          "type": "address"
        },
        {
          "indexed": false,
          "internalType": "string",
          "name": "storyName",
          "type": "string"
        },
        {
          "indexed": false,
          "internalType": "string",
          "name": "genre",
          "type": "string"
        },
        {
          "indexed": false,
          "internalType": "uint256",
          "name": "target",
          "type": "uint256"
        },
        {
          "indexed": false,
          "internalType": "uint256",
          "name": "deadline",
          "type": "uint256"
        },
        {
          "indexed": false,
          "internalType": "uint256",
          "name": "totalChapters",
          "type": "uint256"
        }
      ],
      "name": "StoryCreated",
      "type": "event"
    },
    {
      "inputs": [
        {
          "internalType": "uint256",
          "name": "",
          "type": "uint256"
        }
      ],
      "name": "bigStories",
      "outputs": [
        {
          "internalType": "uint256",
          "name": "storyNo",
          "type": "uint256"
        },
        {
          "internalType": "address",
          "name": "accountOwnerAddr",
          "type": "address"
        },
        {
          "internalType": "string",
          "name": "storyName",
          "type": "string"
        },
        {
          "internalType": "string",
          "name": "genre",
          "type": "string"
        },
        {
          "internalType": "uint256",
          "name": "target",
          "type": "uint256"
        },
        {
          "internalType": "uint256",
          "name": "deadline",
          "type": "uint256"
        },
        {
          "internalType": "uint256",
          "name": "totalChapters",
          "type": "uint256"
        },
        {
          "internalType": "uint256",
          "name": "timestamp",
          "type": "uint256"
        },
        {
          "internalType": "uint256",
          "name": "topOption",
          "type": "uint256"
        }
      ],
      "stateMutability": "view",
      "type": "function",
      "constant": true
    },
    {
      "inputs": [
        {
          "internalType": "uint256",
          "name": "",
          "type": "uint256"
        }
      ],
      "name": "campaignNos",
      "outputs": [
        {
          "internalType": "uint256",
          "name": "",
          "type": "uint256"
        }
      ],
      "stateMutability": "view",
      "type": "function",
      "constant": true
    },
    {
      "inputs": [
        {
          "internalType": "uint256",
          "name": "",
          "type": "uint256"
        }
      ],
      "name": "crowdFundExists",
      "outputs": [
        {
          "internalType": "bool",
          "name": "",
          "type": "bool"
        }
      ],
      "stateMutability": "view",
      "type": "function",
      "constant": true
    },
    {
      "inputs": [
        {
          "internalType": "uint256",
          "name": "",
          "type": "uint256"
        }
      ],
      "name": "crowdFundings",
      "outputs": [
        {
          "internalType": "uint256",
          "name": "crowdFundNo",
          "type": "uint256"
        },
        {
          "internalType": "address",
          "name": "storyOwner",
          "type": "address"
        },
        {
          "internalType": "uint256",
          "name": "storyNo",
          "type": "uint256"
        },
        {
          "internalType": "uint256",
          "name": "chapterNo",
          "type": "uint256"
        },
        {
          "internalType": "uint256",
          "name": "target",
          "type": "uint256"
        },
        {
          "internalType": "uint256",
          "name": "deadline",
          "type": "uint256"
        },
        {
          "internalType": "bool",
          "name": "crowdFundAvail",
          "type": "bool"
        },
        {
          "internalType": "uint256",
          "name": "timestamp",
          "type": "uint256"
        }
      ],
      "stateMutability": "view",
      "type": "function",
      "constant": true
    },
    {
      "inputs": [],
      "name": "intermediary",
      "outputs": [
        {
          "internalType": "address",
          "name": "",
          "type": "address"
        }
      ],
      "stateMutability": "view",
      "type": "function",
      "constant": true
    },
    {
      "inputs": [],
      "name": "getStoryCount",
      "outputs": [
        {
          "internalType": "uint256",
          "name": "",
          "type": "uint256"
        }
      ],
      "stateMutability": "view",
      "type": "function",
      "constant": true
    },
    {
      "inputs": [
        {
          "internalType": "uint256",
          "name": "storyNo",
          "type": "uint256"
        }
      ],
      "name": "getBigStoryChapterCount",
      "outputs": [
        {
          "internalType": "uint256",
          "name": "",
          "type": "uint256"
        }
      ],
      "stateMutability": "view",
      "type": "function",
      "constant": true
    },
    {
      "inputs": [
        {
          "internalType": "uint256",
          "name": "storyNo",
          "type": "uint256"
        },
        {
          "internalType": "uint256",
          "name": "chapterNo",
          "type": "uint256"
        }
      ],
      "name": "getCrowdFundAvail",
      "outputs": [
        {
          "internalType": "bool",
          "name": "",
          "type": "bool"
        }
      ],
      "stateMutability": "view",
      "type": "function",
      "constant": true
    },
    {
      "inputs": [
        {
          "internalType": "string",
          "name": "storyName",
          "type": "string"
        },
        {
          "internalType": "string",
          "name": "genre",
          "type": "string"
        },
        {
          "internalType": "string",
          "name": "cid",
          "type": "string"
        },
        {
          "internalType": "uint256",
          "name": "_target",
          "type": "uint256"
        },
        {
          "internalType": "uint256",
          "name": "_deadline",
          "type": "uint256"
        }
      ],
      "name": "createStory",
      "outputs": [],
      "stateMutability": "nonpayable",
      "type": "function"
    },
    {
      "inputs": [
        {
          "internalType": "uint256",
          "name": "storyNo",
          "type": "uint256"
        },
        {
          "internalType": "uint256",
          "name": "chapterNo",
          "type": "uint256"
        },
        {
          "internalType": "string",
          "name": "cid",
          "type": "string"
        }
      ],
      "name": "CreateCrowdFund",
      "outputs": [],
      "stateMutability": "nonpayable",
      "type": "function"
    },
    {
      "inputs": [],
      "name": "getBigStories",
      "outputs": [
        {
          "components": [
            {
              "internalType": "uint256",
              "name": "storyNo",
              "type": "uint256"
            },
            {
              "internalType": "address",
              "name": "accountOwnerAddr",
              "type": "address"
            },
            {
              "internalType": "string",
              "name": "storyName",
              "type": "string"
            },
            {
              "internalType": "string",
              "name": "genre",
              "type": "string"
            },
            {
              "internalType": "uint256",
              "name": "target",
              "type": "uint256"
            },
            {
              "internalType": "uint256",
              "name": "deadline",
              "type": "uint256"
            },
            {
              "internalType": "uint256",
              "name": "totalChapters",
              "type": "uint256"
            },
            {
              "internalType": "uint256",
              "name": "timestamp",
              "type": "uint256"
            },
            {
              "components": [
                {
                  "internalType": "uint256",
                  "name": "chapterNo",
                  "type": "uint256"
                },
                {
                  "internalType": "string",
                  "name": "cid",
                  "type": "string"
                },
                {
                  "internalType": "address",
                  "name": "accountWritten",
                  "type": "address"
                }
              ],
              "internalType": "struct crowdFunding.chapters[]",
              "name": "chapter",
              "type": "tuple[]"
            },
            {
              "internalType": "uint256",
              "name": "topOption",
              "type": "uint256"
            }
          ],
          "internalType": "struct crowdFunding.bigStory[]",
          "name": "",
          "type": "tuple[]"
        }
      ],
      "stateMutability": "view",
      "type": "function",
      "constant": true
    },
    {
      "inputs": [
        {
          "internalType": "uint256",
          "name": "storyNo",
          "type": "uint256"
        },
        {
          "internalType": "uint256",
          "name": "chapterNo",
          "type": "uint256"
        },
        {
          "internalType": "uint256",
          "name": "optionNo",
          "type": "uint256"
        }
      ],
      "name": "donateToCampaign",
      "outputs": [],
      "stateMutability": "payable",
      "type": "function",
      "payable": true
    },
    {
      "inputs": [],
      "name": "getCampaign",
      "outputs": [
        {
          "components": [
            {
              "internalType": "uint256",
              "name": "crowdFundNo",
              "type": "uint256"
            },
            {
              "internalType": "address",
              "name": "storyOwner",
              "type": "address"
            },
            {
              "internalType": "uint256",
              "name": "storyNo",
              "type": "uint256"
            },
            {
              "internalType": "uint256",
              "name": "chapterNo",
              "type": "uint256"
            },
            {
              "internalType": "uint256",
              "name": "target",
              "type": "uint256"
            },
            {
              "internalType": "uint256",
              "name": "deadline",
              "type": "uint256"
            },
            {
              "internalType": "bool",
              "name": "crowdFundAvail",
              "type": "bool"
            },
            {
              "components": [
                {
                  "internalType": "uint256",
                  "name": "optionNo",
                  "type": "uint256"
                },
                {
                  "internalType": "string",
                  "name": "cid",
                  "type": "string"
                },
                {
                  "internalType": "address",
                  "name": "writer",
                  "type": "address"
                },
                {
                  "internalType": "address[]",
                  "name": "donators",
                  "type": "address[]"
                },
                {
                  "internalType": "uint256[]",
                  "name": "donations",
                  "type": "uint256[]"
                },
                {
                  "internalType": "uint256",
                  "name": "amtCollected",
                  "type": "uint256"
                }
              ],
              "internalType": "struct crowdFunding.option[]",
              "name": "options",
              "type": "tuple[]"
            },
            {
              "internalType": "uint256",
              "name": "timestamp",
              "type": "uint256"
            }
          ],
          "internalType": "struct crowdFunding.crowdFund[]",
          "name": "",
          "type": "tuple[]"
        }
      ],
      "stateMutability": "view",
      "type": "function",
      "constant": true
    },
    {
      "inputs": [
        {
          "internalType": "uint256",
          "name": "storyNo",
          "type": "uint256"
        },
        {
          "internalType": "uint256",
          "name": "chapterNo",
          "type": "uint256"
        }
      ],
      "name": "getCampaignByKey",
      "outputs": [
        {
          "components": [
            {
              "internalType": "uint256",
              "name": "crowdFundNo",
              "type": "uint256"
            },
            {
              "internalType": "address",
              "name": "storyOwner",
              "type": "address"
            },
            {
              "internalType": "uint256",
              "name": "storyNo",
              "type": "uint256"
            },
            {
              "internalType": "uint256",
              "name": "chapterNo",
              "type": "uint256"
            },
            {
              "internalType": "uint256",
              "name": "target",
              "type": "uint256"
            },
            {
              "internalType": "uint256",
              "name": "deadline",
              "type": "uint256"
            },
            {
              "internalType": "bool",
              "name": "crowdFundAvail",
              "type": "bool"
            },
            {
              "components": [
                {
                  "internalType": "uint256",
                  "name": "optionNo",
                  "type": "uint256"
                },
                {
                  "internalType": "string",
                  "name": "cid",
                  "type": "string"
                },
                {
                  "internalType": "address",
                  "name": "writer",
                  "type": "address"
                },
                {
                  "internalType": "address[]",
                  "name": "donators",
                  "type": "address[]"
                },
                {
                  "internalType": "uint256[]",
                  "name": "donations",
                  "type": "uint256[]"
                },
                {
                  "internalType": "uint256",
                  "name": "amtCollected",
                  "type": "uint256"
                }
              ],
              "internalType": "struct crowdFunding.option[]",
              "name": "options",
              "type": "tuple[]"
            },
            {
              "internalType": "uint256",
              "name": "timestamp",
              "type": "uint256"
            }
          ],
          "internalType": "struct crowdFunding.crowdFund",
          "name": "",
          "type": "tuple"
        }
      ],
      "stateMutability": "view",
      "type": "function",
      "constant": true
    }
  ],
  "bytecode": "0x608060405260006004556000600555734c6cc2b30a8b9630cc897589cca40c83609c77a8600660006101000a81548173ffffffffffffffffffffffffffffffffffffffff021916908373ffffffffffffffffffffffffffffffffffffffff16021790555034801561006f57600080fd5b50613b648061007f6000396000f3fe6080604052600436106100dd5760003560e01c806379fd022e1161007f5780639df48fe1116100595780639df48fe1146102cd578063a8a8e73f1461030a578063ea46445514610347578063edba2b1c1461038b576100dd565b806379fd022e146102285780638569c77514610253578063893e565314610290576100dd565b80633f5f2356116100bb5780633f5f2356146101735780634176ead1146101b857806345a8b051146101d45780634e0cfe58146101fd576100dd565b8063236b8e3a146100e25780632eca9c2d1461010d578063347822fe14610136575b600080fd5b3480156100ee57600080fd5b506100f76103b6565b6040516101049190612861565b60405180910390f35b34801561011957600080fd5b50610134600480360381019061012f91906129f8565b61078f565b005b34801561014257600080fd5b5061015d60048036038101906101589190612ac7565b610a05565b60405161016a9190612bcc565b60405180910390f35b34801561017f57600080fd5b5061019a60048036038101906101959190612bee565b610d45565b6040516101af99989796959493929190612c83565b60405180910390f35b6101d260048036038101906101cd9190612d1e565b610ec3565b005b3480156101e057600080fd5b506101fb60048036038101906101f69190612d71565b61137a565b005b34801561020957600080fd5b50610212611bb4565b60405161021f919061309c565b60405180910390f35b34801561023457600080fd5b5061023d611f81565b60405161024a91906130be565b60405180910390f35b34801561025f57600080fd5b5061027a60048036038101906102759190612bee565b611fa7565b60405161028791906130d9565b60405180910390f35b34801561029c57600080fd5b506102b760048036038101906102b29190612bee565b611fcb565b6040516102c49190613103565b60405180910390f35b3480156102d957600080fd5b506102f460048036038101906102ef9190612ac7565b611feb565b6040516103019190613103565b60405180910390f35b34801561031657600080fd5b50610331600480360381019061032c9190612bee565b612030565b60405161033e91906130d9565b60405180910390f35b34801561035357600080fd5b5061036e60048036038101906103699190612bee565b61204f565b60405161038298979695949392919061311e565b60405180910390f35b34801561039757600080fd5b506103a06120c4565b6040516103ad91906130d9565b60405180910390f35b6060600060038054905067ffffffffffffffff8111156103d9576103d86128a1565b5b60405190808252806020026020018201604052801561041257816020015b6103ff6120ce565b8152602001906001900390816103f75790505b50905060005b600380549050811015610787576000600160006003848154811061043f5761043e61319c565b5b9060005260206000200154815260200190815260200160002090508060405180610120016040529081600082015481526020016001820160009054906101000a900473ffffffffffffffffffffffffffffffffffffffff1673ffffffffffffffffffffffffffffffffffffffff1673ffffffffffffffffffffffffffffffffffffffff168152602001600282015481526020016003820154815260200160048201548152602001600582015481526020016006820160009054906101000a900460ff1615151515815260200160078201805480602002602001604051908101604052809291908181526020016000905b8282101561074357838290600052602060002090600602016040518060c00160405290816000820154815260200160018201805461056c906131fa565b80601f0160208091040260200160405190810160405280929190818152602001828054610598906131fa565b80156105e55780601f106105ba576101008083540402835291602001916105e5565b820191906000526020600020905b8154815290600101906020018083116105c857829003601f168201915b505050505081526020016002820160009054906101000a900473ffffffffffffffffffffffffffffffffffffffff1673ffffffffffffffffffffffffffffffffffffffff1673ffffffffffffffffffffffffffffffffffffffff168152602001600382018054806020026020016040519081016040528092919081815260200182805480156106c957602002820191906000526020600020905b8160009054906101000a900473ffffffffffffffffffffffffffffffffffffffff1673ffffffffffffffffffffffffffffffffffffffff168152602001906001019080831161067f575b505050505081526020016004820180548060200260200160405190810160405280929190818152602001828054801561072157602002820191906000526020600020905b81548152602001906001019080831161070d575b505050505081526020016005820154815250508152602001906001019061052f565b5050505081526020016008820154815250508383815181106107685761076761319c565b5b602002602001018190525050808061077f9061325a565b915050610418565b508091505090565b600081116107d2576040517f08c379a00000000000000000000000000000000000000000000000000000000081526004016107c990613314565b60405180910390fd5b6000806000600454815260200190815260200160002090506004548160000181905550600460008154809291906108089061325a565b9190505550338160010160006101000a81548173ffffffffffffffffffffffffffffffffffffffff021916908373ffffffffffffffffffffffffffffffffffffffff16021790555084816003019080519060200190610868929190612132565b5085816002019080519060200190610881929190612132565b506001816006018190555082816004018190555081816005018190555042816007018190555060008160090181905550806008016040518060600160405280600181526020018681526020013373ffffffffffffffffffffffffffffffffffffffff168152509080600181540180825580915050600190039060005260206000209060030201600090919091909150600082015181600001556020820151816001019080519060200190610936929190612132565b5060408201518160020160006101000a81548173ffffffffffffffffffffffffffffffffffffffff021916908373ffffffffffffffffffffffffffffffffffffffff16021790555050507f2a79dee042ca0de16e1f6b2fad797a47f700a6333e5006cf01831d8d1370c8ca81600001548260010160009054906101000a900473ffffffffffffffffffffffffffffffffffffffff1683600201846003018560040154866005015487600601546040516109f597969594939291906133c9565b60405180910390a1505050505050565b610a0d6120ce565b600082606485610a1d9190613446565b610a2791906134a0565b905060006001600083815260200190815260200160002090508060405180610120016040529081600082015481526020016001820160009054906101000a900473ffffffffffffffffffffffffffffffffffffffff1673ffffffffffffffffffffffffffffffffffffffff1673ffffffffffffffffffffffffffffffffffffffff168152602001600282015481526020016003820154815260200160048201548152602001600582015481526020016006820160009054906101000a900460ff1615151515815260200160078201805480602002602001604051908101604052809291908181526020016000905b82821015610d2957838290600052602060002090600602016040518060c001604052908160008201548152602001600182018054610b52906131fa565b80601f0160208091040260200160405190810160405280929190818152602001828054610b7e906131fa565b8015610bcb5780601f10610ba057610100808354040283529160200191610bcb565b820191906000526020600020905b815481529060010190602001808311610bae57829003601f168201915b505050505081526020016002820160009054906101000a900473ffffffffffffffffffffffffffffffffffffffff1673ffffffffffffffffffffffffffffffffffffffff1673ffffffffffffffffffffffffffffffffffffffff16815260200160038201805480602002602001604051908101604052809291908181526020018280548015610caf57602002820191906000526020600020905b8160009054906101000a900473ffffffffffffffffffffffffffffffffffffffff1673ffffffffffffffffffffffffffffffffffffffff1681526020019060010190808311610c65575b5050505050815260200160048201805480602002602001604051908101604052809291908181526020018280548015610d0757602002820191906000526020600020905b815481526020019060010190808311610cf3575b5050505050815260200160058201548152505081526020019060010190610b15565b5050505081526020016008820154815250509250505092915050565b60006020528060005260406000206000915090508060000154908060010160009054906101000a900473ffffffffffffffffffffffffffffffffffffffff1690806002018054610d94906131fa565b80601f0160208091040260200160405190810160405280929190818152602001828054610dc0906131fa565b8015610e0d5780601f10610de257610100808354040283529160200191610e0d565b820191906000526020600020905b815481529060010190602001808311610df057829003601f168201915b505050505090806003018054610e22906131fa565b80601f0160208091040260200160405190810160405280929190818152602001828054610e4e906131fa565b8015610e9b5780601f10610e7057610100808354040283529160200191610e9b565b820191906000526020600020905b815481529060010190602001808311610e7e57829003601f168201915b5050505050908060040154908060050154908060060154908060070154908060090154905089565b6000806000858152602001908152602001600020905060018160060154610eea91906134a0565b8314610f2b576040517f08c379a0000000000000000000000000000000000000000000000000000000008152600401610f2290613568565b60405180910390fd5b600083606486610f3b9190613446565b610f4591906134a0565b905060006001600083815260200190815260200160002090506000816007018581548110610f7657610f7561319c565b5b9060005260206000209060060201905081600501548260080154610f9a91906134a0565b42108015610fc35750670de0b6b3a76400008260040154610fbb9190613446565b816005015411155b611002576040517f08c379a0000000000000000000000000000000000000000000000000000000008152600401610ff9906135fa565b60405180910390fd5b3481600501600082825461101691906134a0565b9250508190555080600301339080600181540180825580915050600190039060005260206000200160009091909190916101000a81548173ffffffffffffffffffffffffffffffffffffffff021916908373ffffffffffffffffffffffffffffffffffffffff16021790555080600401349080600181540180825580915050600190039060005260206000200160009091909190915055816007018460090154815481106110c7576110c661319c565b5b9060005260206000209060060201600501548160050154111561126857848460090181905550604051806060016040528087815260200182600101805461110d906131fa565b80601f0160208091040260200160405190810160405280929190818152602001828054611139906131fa565b80156111865780601f1061115b57610100808354040283529160200191611186565b820191906000526020600020905b81548152906001019060200180831161116957829003601f168201915b505050505081526020018260020160009054906101000a900473ffffffffffffffffffffffffffffffffffffffff1673ffffffffffffffffffffffffffffffffffffffff16815250846008018560060154815481106111e8576111e761319c565b5b906000526020600020906003020160008201518160000155602082015181600101908051906020019061121c929190612132565b5060408201518160020160006101000a81548173ffffffffffffffffffffffffffffffffffffffff021916908373ffffffffffffffffffffffffffffffffffffffff1602179055509050505b8160050154826008015461127c91906134a0565b421080156112a45750670de0b6b3a7640000826004015461129d9190613446565b8160050154105b6112e05760008260060160006101000a81548160ff0219169083151502179055508360060160008154809291906112da9061325a565b91905055505b60008160020160009054906101000a900473ffffffffffffffffffffffffffffffffffffffff1673ffffffffffffffffffffffffffffffffffffffff163460405161132a90613671565b60006040518083038185875af1925050503d8060008114611367576040519150601f19603f3d011682016040523d82523d6000602084013e61136c565b606091505b505090505050505050505050565b600080600085815260200190815260200160002090506000836064866113a09190613446565b6113aa91906134a0565b90506002600082815260200190815260200160002060009054906101000a900460ff1661182f5760006001600083815260200190815260200160002090506005548160000181905550600560008154809291906114069061325a565b919050555085816002018190555084816003018190555082600401548160040181905550610e106018846005015461143e9190613446565b6114489190613446565b836007015461145791906134a0565b81600501819055508260010160009054906101000a900473ffffffffffffffffffffffffffffffffffffffff168160010160006101000a81548173ffffffffffffffffffffffffffffffffffffffff021916908373ffffffffffffffffffffffffffffffffffffffff160217905550806007016040518060c00160405280600081526020018681526020013373ffffffffffffffffffffffffffffffffffffffff168152602001600067ffffffffffffffff811115611519576115186128a1565b5b6040519080825280602002602001820160405280156115475781602001602082028036833780820191505090505b508152602001600067ffffffffffffffff811115611568576115676128a1565b5b6040519080825280602002602001820160405280156115965781602001602082028036833780820191505090505b508152602001600081525090806001815401808255809150506001900390600052602060002090600602016000909190919091506000820151816000015560208201518160010190805190602001906115f0929190612132565b5060408201518160020160006101000a81548173ffffffffffffffffffffffffffffffffffffffff021916908373ffffffffffffffffffffffffffffffffffffffff16021790555060608201518160030190805190602001906116549291906121b8565b506080820151816004019080519060200190611671929190612242565b5060a08201518160050155505060016002600084815260200190815260200160002060006101000a81548160ff021916908315150217905550600382908060018154018082558091505060019003906000526020600020016000909190919091505560018160060160006101000a81548160ff0219169083151502179055504281600801819055508260080160405180606001604052808781526020018681526020013373ffffffffffffffffffffffffffffffffffffffff16815250908060018154018082558091505060019003906000526020600020906003020160009091909190915060008201518160000155602082015181600101908051906020019061177d929190612132565b5060408201518160020160006101000a81548173ffffffffffffffffffffffffffffffffffffffff021916908373ffffffffffffffffffffffffffffffffffffffff1602179055505050600083600901819055507f2ab30dcb2a7f424006408f5b95bc4d71a3f55bfc0ca82e6692ec00a0b38a7b59816000015482600201548360030154846004015485600501548660070160405161182196959493929190613a38565b60405180910390a150611bad565b60006001600083815260200190815260200160002090508060060160009054906101000a900460ff1615611a61576000600182600701600184600701805490506118799190613aa0565b8154811061188a5761188961319c565b5b9060005260206000209060060201600001546118a691906134a0565b9050816007016040518060c001604052808381526020018781526020013373ffffffffffffffffffffffffffffffffffffffff168152602001600067ffffffffffffffff8111156118fa576118f96128a1565b5b6040519080825280602002602001820160405280156119285781602001602082028036833780820191505090505b508152602001600067ffffffffffffffff811115611949576119486128a1565b5b6040519080825280602002602001820160405280156119775781602001602082028036833780820191505090505b508152602001600081525090806001815401808255809150506001900390600052602060002090600602016000909190919091506000820151816000015560208201518160010190805190602001906119d1929190612132565b5060408201518160020160006101000a81548173ffffffffffffffffffffffffffffffffffffffff021916908373ffffffffffffffffffffffffffffffffffffffff1602179055506060820151816003019080519060200190611a359291906121b8565b506080820151816004019080519060200190611a52929190612242565b5060a082015181600501555050505b7f42ef367464dbe47bfc5b85669d1bdcb71ba8b4b5db317a9534d1e30008bb86cd81600001548260070160018460070180549050611a9f9190613aa0565b81548110611ab057611aaf61319c565b5b9060005260206000209060060201600001548360070160018560070180549050611ada9190613aa0565b81548110611aeb57611aea61319c565b5b90600052602060002090600602016001018460070160018660070180549050611b149190613aa0565b81548110611b2557611b2461319c565b5b906000526020600020906006020160020160009054906101000a900473ffffffffffffffffffffffffffffffffffffffff168560070160018760070180549050611b6f9190613aa0565b81548110611b8057611b7f61319c565b5b906000526020600020906006020160050154604051611ba3959493929190613ad4565b60405180910390a1505b5050505050565b6060600060045467ffffffffffffffff811115611bd457611bd36128a1565b5b604051908082528060200260200182016040528015611c0d57816020015b611bfa61228f565b815260200190600190039081611bf25790505b50905060005b600454811015611f7957600080600083815260200190815260200160002090508060405180610140016040529081600082015481526020016001820160009054906101000a900473ffffffffffffffffffffffffffffffffffffffff1673ffffffffffffffffffffffffffffffffffffffff1673ffffffffffffffffffffffffffffffffffffffff168152602001600282018054611cb0906131fa565b80601f0160208091040260200160405190810160405280929190818152602001828054611cdc906131fa565b8015611d295780601f10611cfe57610100808354040283529160200191611d29565b820191906000526020600020905b815481529060010190602001808311611d0c57829003601f168201915b50505050508152602001600382018054611d42906131fa565b80601f0160208091040260200160405190810160405280929190818152602001828054611d6e906131fa565b8015611dbb5780601f10611d9057610100808354040283529160200191611dbb565b820191906000526020600020905b815481529060010190602001808311611d9e57829003601f168201915b505050505081526020016004820154815260200160058201548152602001600682015481526020016007820154815260200160088201805480602002602001604051908101604052809291908181526020016000905b82821015611f35578382906000526020600020906003020160405180606001604052908160008201548152602001600182018054611e4e906131fa565b80601f0160208091040260200160405190810160405280929190818152602001828054611e7a906131fa565b8015611ec75780601f10611e9c57610100808354040283529160200191611ec7565b820191906000526020600020905b815481529060010190602001808311611eaa57829003601f168201915b505050505081526020016002820160009054906101000a900473ffffffffffffffffffffffffffffffffffffffff1673ffffffffffffffffffffffffffffffffffffffff1673ffffffffffffffffffffffffffffffffffffffff168152505081526020019060010190611e11565b505050508152602001600982015481525050838381518110611f5a57611f5961319c565b5b6020026020010181905250508080611f719061325a565b915050611c13565b508091505090565b600660009054906101000a900473ffffffffffffffffffffffffffffffffffffffff1681565b60038181548110611fb757600080fd5b906000526020600020016000915090505481565b60026020528060005260406000206000915054906101000a900460ff1681565b60006001600083606486611fff9190613446565b61200991906134a0565b815260200190815260200160002060060160009054906101000a900460ff16905092915050565b6000806000838152602001908152602001600020600601549050919050565b60016020528060005260406000206000915090508060000154908060010160009054906101000a900473ffffffffffffffffffffffffffffffffffffffff16908060020154908060030154908060040154908060050154908060060160009054906101000a900460ff16908060080154905088565b6000600454905090565b60405180610120016040528060008152602001600073ffffffffffffffffffffffffffffffffffffffff1681526020016000815260200160008152602001600081526020016000815260200160001515815260200160608152602001600081525090565b82805461213e906131fa565b90600052602060002090601f01602090048101928261216057600085556121a7565b82601f1061217957805160ff19168380011785556121a7565b828001600101855582156121a7579182015b828111156121a657825182559160200191906001019061218b565b5b5090506121b491906122f8565b5090565b828054828255906000526020600020908101928215612231579160200282015b828111156122305782518260006101000a81548173ffffffffffffffffffffffffffffffffffffffff021916908373ffffffffffffffffffffffffffffffffffffffff160217905550916020019190600101906121d8565b5b50905061223e91906122f8565b5090565b82805482825590600052602060002090810192821561227e579160200282015b8281111561227d578251825591602001919060010190612262565b5b50905061228b91906122f8565b5090565b60405180610140016040528060008152602001600073ffffffffffffffffffffffffffffffffffffffff16815260200160608152602001606081526020016000815260200160008152602001600081526020016000815260200160608152602001600081525090565b5b808211156123115760008160009055506001016122f9565b5090565b600081519050919050565b600082825260208201905092915050565b6000819050602082019050919050565b6000819050919050565b61235481612341565b82525050565b600073ffffffffffffffffffffffffffffffffffffffff82169050919050565b60006123858261235a565b9050919050565b6123958161237a565b82525050565b60008115159050919050565b6123b08161239b565b82525050565b600081519050919050565b600082825260208201905092915050565b6000819050602082019050919050565b600081519050919050565b600082825260208201905092915050565b60005b8381101561241c578082015181840152602081019050612401565b8381111561242b576000848401525b50505050565b6000601f19601f8301169050919050565b600061244d826123e2565b61245781856123ed565b93506124678185602086016123fe565b61247081612431565b840191505092915050565b600081519050919050565b600082825260208201905092915050565b6000819050602082019050919050565b60006124b3838361238c565b60208301905092915050565b6000602082019050919050565b60006124d78261247b565b6124e18185612486565b93506124ec83612497565b8060005b8381101561251d57815161250488826124a7565b975061250f836124bf565b9250506001810190506124f0565b5085935050505092915050565b600081519050919050565b600082825260208201905092915050565b6000819050602082019050919050565b6000612562838361234b565b60208301905092915050565b6000602082019050919050565b60006125868261252a565b6125908185612535565b935061259b83612546565b8060005b838110156125cc5781516125b38882612556565b97506125be8361256e565b92505060018101905061259f565b5085935050505092915050565b600060c0830160008301516125f1600086018261234b565b50602083015184820360208601526126098282612442565b915050604083015161261e604086018261238c565b506060830151848203606086015261263682826124cc565b91505060808301518482036080860152612650828261257b565b91505060a083015161266560a086018261234b565b508091505092915050565b600061267c83836125d9565b905092915050565b6000602082019050919050565b600061269c826123b6565b6126a681856123c1565b9350836020820285016126b8856123d2565b8060005b858110156126f457848403895281516126d58582612670565b94506126e083612684565b925060208a019950506001810190506126bc565b50829750879550505050505092915050565b60006101208301600083015161271f600086018261234b565b506020830151612732602086018261238c565b506040830151612745604086018261234b565b506060830151612758606086018261234b565b50608083015161276b608086018261234b565b5060a083015161277e60a086018261234b565b5060c083015161279160c08601826123a7565b5060e083015184820360e08601526127a98282612691565b9150506101008301516127c061010086018261234b565b508091505092915050565b60006127d78383612706565b905092915050565b6000602082019050919050565b60006127f782612315565b6128018185612320565b93508360208202850161281385612331565b8060005b8581101561284f578484038952815161283085826127cb565b945061283b836127df565b925060208a01995050600181019050612817565b50829750879550505050505092915050565b6000602082019050818103600083015261287b81846127ec565b905092915050565b6000604051905090565b600080fd5b600080fd5b600080fd5b600080fd5b7f4e487b7100000000000000000000000000000000000000000000000000000000600052604160045260246000fd5b6128d982612431565b810181811067ffffffffffffffff821117156128f8576128f76128a1565b5b80604052505050565b600061290b612883565b905061291782826128d0565b919050565b600067ffffffffffffffff821115612937576129366128a1565b5b61294082612431565b9050602081019050919050565b82818337600083830152505050565b600061296f61296a8461291c565b612901565b90508281526020810184848401111561298b5761298a61289c565b5b61299684828561294d565b509392505050565b600082601f8301126129b3576129b2612897565b5b81356129c384826020860161295c565b91505092915050565b6129d581612341565b81146129e057600080fd5b50565b6000813590506129f2816129cc565b92915050565b600080600080600060a08688031215612a1457612a1361288d565b5b600086013567ffffffffffffffff811115612a3257612a31612892565b5b612a3e8882890161299e565b955050602086013567ffffffffffffffff811115612a5f57612a5e612892565b5b612a6b8882890161299e565b945050604086013567ffffffffffffffff811115612a8c57612a8b612892565b5b612a988882890161299e565b9350506060612aa9888289016129e3565b9250506080612aba888289016129e3565b9150509295509295909350565b60008060408385031215612ade57612add61288d565b5b6000612aec858286016129e3565b9250506020612afd858286016129e3565b9150509250929050565b600061012083016000830151612b20600086018261234b565b506020830151612b33602086018261238c565b506040830151612b46604086018261234b565b506060830151612b59606086018261234b565b506080830151612b6c608086018261234b565b5060a0830151612b7f60a086018261234b565b5060c0830151612b9260c08601826123a7565b5060e083015184820360e0860152612baa8282612691565b915050610100830151612bc161010086018261234b565b508091505092915050565b60006020820190508181036000830152612be68184612b07565b905092915050565b600060208284031215612c0457612c0361288d565b5b6000612c12848285016129e3565b91505092915050565b612c2481612341565b82525050565b612c338161237a565b82525050565b600082825260208201905092915050565b6000612c55826123e2565b612c5f8185612c39565b9350612c6f8185602086016123fe565b612c7881612431565b840191505092915050565b600061012082019050612c99600083018c612c1b565b612ca6602083018b612c2a565b8181036040830152612cb8818a612c4a565b90508181036060830152612ccc8189612c4a565b9050612cdb6080830188612c1b565b612ce860a0830187612c1b565b612cf560c0830186612c1b565b612d0260e0830185612c1b565b612d10610100830184612c1b565b9a9950505050505050505050565b600080600060608486031215612d3757612d3661288d565b5b6000612d45868287016129e3565b9350506020612d56868287016129e3565b9250506040612d67868287016129e3565b9150509250925092565b600080600060608486031215612d8a57612d8961288d565b5b6000612d98868287016129e3565b9350506020612da9868287016129e3565b925050604084013567ffffffffffffffff811115612dca57612dc9612892565b5b612dd68682870161299e565b9150509250925092565b600081519050919050565b600082825260208201905092915050565b6000819050602082019050919050565b600081519050919050565b600082825260208201905092915050565b6000819050602082019050919050565b6000606083016000830151612e50600086018261234b565b5060208301518482036020860152612e688282612442565b9150506040830151612e7d604086018261238c565b508091505092915050565b6000612e948383612e38565b905092915050565b6000602082019050919050565b6000612eb482612e0c565b612ebe8185612e17565b935083602082028501612ed085612e28565b8060005b85811015612f0c5784840389528151612eed8582612e88565b9450612ef883612e9c565b925060208a01995050600181019050612ed4565b50829750879550505050505092915050565b600061014083016000830151612f37600086018261234b565b506020830151612f4a602086018261238c565b5060408301518482036040860152612f628282612442565b91505060608301518482036060860152612f7c8282612442565b9150506080830151612f91608086018261234b565b5060a0830151612fa460a086018261234b565b5060c0830151612fb760c086018261234b565b5060e0830151612fca60e086018261234b565b50610100830151848203610100860152612fe48282612ea9565b915050610120830151612ffb61012086018261234b565b508091505092915050565b60006130128383612f1e565b905092915050565b6000602082019050919050565b600061303282612de0565b61303c8185612deb565b93508360208202850161304e85612dfc565b8060005b8581101561308a578484038952815161306b8582613006565b94506130768361301a565b925060208a01995050600181019050613052565b50829750879550505050505092915050565b600060208201905081810360008301526130b68184613027565b905092915050565b60006020820190506130d36000830184612c2a565b92915050565b60006020820190506130ee6000830184612c1b565b92915050565b6130fd8161239b565b82525050565b600060208201905061311860008301846130f4565b92915050565b600061010082019050613134600083018b612c1b565b613141602083018a612c2a565b61314e6040830189612c1b565b61315b6060830188612c1b565b6131686080830187612c1b565b61317560a0830186612c1b565b61318260c08301856130f4565b61318f60e0830184612c1b565b9998505050505050505050565b7f4e487b7100000000000000000000000000000000000000000000000000000000600052603260045260246000fd5b7f4e487b7100000000000000000000000000000000000000000000000000000000600052602260045260246000fd5b6000600282049050600182168061321257607f821691505b602082108103613225576132246131cb565b5b50919050565b7f4e487b7100000000000000000000000000000000000000000000000000000000600052601160045260246000fd5b600061326582612341565b91507fffffffffffffffffffffffffffffffffffffffffffffffffffffffffffffffff82036132975761329661322b565b5b600182019050919050565b7f446561646c696e652053686f756c642062652061746c6561737420312064617960008201527f2066726f6d206372656174696f6e206f662063726f776446756e64696e670000602082015250565b60006132fe603e83612c39565b9150613309826132a2565b604082019050919050565b6000602082019050818103600083015261332d816132f1565b9050919050565b60008190508160005260206000209050919050565b60008154613356816131fa565b6133608186612c39565b9450600182166000811461337b576001811461338d576133c0565b60ff19831686526020860193506133c0565b61339685613334565b60005b838110156133b857815481890152600182019150602081019050613399565b808801955050505b50505092915050565b600060e0820190506133de600083018a612c1b565b6133eb6020830189612c2a565b81810360408301526133fd8188613349565b905081810360608301526134118187613349565b90506134206080830186612c1b565b61342d60a0830185612c1b565b61343a60c0830184612c1b565b98975050505050505050565b600061345182612341565b915061345c83612341565b9250817fffffffffffffffffffffffffffffffffffffffffffffffffffffffffffffffff04831182151516156134955761349461322b565b5b828202905092915050565b60006134ab82612341565b91506134b683612341565b9250827fffffffffffffffffffffffffffffffffffffffffffffffffffffffffffffffff038211156134eb576134ea61322b565b5b828201905092915050565b7f506c656173652063726f77642066756e6420746865206c61746573742063686160008201527f7074657221000000000000000000000000000000000000000000000000000000602082015250565b6000613552602583612c39565b915061355d826134f6565b604082019050919050565b6000602082019050818103600083015261358181613545565b9050919050565b7f43726f77642046756e64696e6720666f7220746869732063686170746572206860008201527f6173206265656e20636c6f736564210000000000000000000000000000000000602082015250565b60006135e4602f83612c39565b91506135ef82613588565b604082019050919050565b60006020820190508181036000830152613613816135d7565b9050919050565b600081905092915050565b7f596f75722073746f727920676f742061206e657720646f6e6174696f6e000000600082015250565b600061365b601d8361361a565b915061366682613625565b601d82019050919050565b600061367c8261364e565b9150819050919050565b600081549050919050565b600082825260208201905092915050565b60008190508160005260206000209050919050565b60008160001c9050919050565b6000819050919050565b60006136e16136dc836136b7565b6136c4565b9050919050565b600081546136f5816131fa565b6136ff81866123ed565b9450600182166000811461371a576001811461372c5761375f565b60ff198316865260208601935061375f565b61373585613334565b60005b8381101561375757815481890152600182019150602081019050613738565b808801955050505b50505092915050565b600073ffffffffffffffffffffffffffffffffffffffff82169050919050565b600061379b613796836136b7565b613768565b9050919050565b600081549050919050565b60008190508160005260206000209050919050565b60006137ce8254613788565b9050919050565b6000600182019050919050565b60006137ed826137a2565b6137f78185612486565b9350613802836137ad565b8060005b8381101561383a57613817826137c2565b61382188826124a7565b975061382c836137d5565b925050600181019050613806565b5085935050505092915050565b600081549050919050565b60008190508160005260206000209050919050565b600061387382546136ce565b9050919050565b6000600182019050919050565b600061389282613847565b61389c8185612535565b93506138a783613852565b8060005b838110156138df576138bc82613867565b6138c68882612556565b97506138d18361387a565b9250506001810190506138ab565b5085935050505092915050565b600060c083016000808401549050613903816136ce565b613910600087018261234b565b5060018401858303602087015261392783826136e8565b9250506002840154905061393a81613788565b613947604087018261238c565b5060038401858303606087015261395e83826137e2565b9250506004840185830360808701526139778382613887565b9250506005840154905061398a816136ce565b61399760a087018261234b565b50819250505092915050565b60006139af83836138ec565b905092915050565b6000600682019050919050565b60006139cf82613686565b6139d98185613691565b9350836020820285016139eb856136a2565b8060005b85811015613a2657848403895281613a0785826139a3565b9450613a12836139b7565b925060208a019950506001810190506139ef565b50829750879550505050505092915050565b600060c082019050613a4d6000830189612c1b565b613a5a6020830188612c1b565b613a676040830187612c1b565b613a746060830186612c1b565b613a816080830185612c1b565b81810360a0830152613a9381846139c4565b9050979650505050505050565b6000613aab82612341565b9150613ab683612341565b925082821015613ac957613ac861322b565b5b828203905092915050565b600060a082019050613ae96000830188612c1b565b613af66020830187612c1b565b8181036040830152613b088186613349565b9050613b176060830185612c2a565b613b246080830184612c1b565b969550505050505056fea2646970667358221220e045a5814be4ffa8ff8fa2f089bbd5e3bd85070632c0651370f505d6c9f6dab664736f6c634300080d0033",
  "immutableReferences": {},
  "source": "// SPDX-License-Identifier: MIT\r\npragma solidity ^0.8.0;\r\ncontract crowdFunding {\r\n\r\n    event StoryCreated(uint256 storyNo, address accountOwnerAddr, string storyName, string genre, uint256 target, uint256 deadline, uint256 totalChapters);\r\n    event CrowdFundCreated(uint256 crowdFundNo, uint256 storyNo, uint256 chapterNo, uint256 target, uint256 deadline, option[] options);\r\n    event OptionCreated(uint256 crowdFundNo, uint256 optionNo, string cid, address writer, uint256 amtCollected);\r\n    \r\n    struct chapters {\r\n        uint256 chapterNo;\r\n        string cid;\r\n        address accountWritten;\r\n    }\r\n\r\n    struct bigStory {\r\n        uint256 storyNo;\r\n        address accountOwnerAddr;\r\n        string storyName;\r\n        string genre;\r\n        uint256 target;\r\n        uint256 deadline;\r\n        uint256 totalChapters;\r\n        uint256 timestamp;\r\n        chapters[] chapter;\r\n        uint256 topOption;\r\n    }\r\n\r\n    struct option {\r\n        uint256 optionNo;\r\n        string cid;\r\n        address writer;\r\n        address[] donators;\r\n        uint256[] donations;\r\n        uint256 amtCollected;\r\n    }\r\n\r\n    struct crowdFund {\r\n        uint256 crowdFundNo;\r\n        address storyOwner;\r\n        uint256 storyNo;\r\n        uint256 chapterNo;\r\n        uint256 target;\r\n        uint256 deadline;\r\n        bool crowdFundAvail;\r\n        option[] options;\r\n        uint256 timestamp;\r\n    }\r\n\r\n    mapping(uint256 => bigStory) public bigStories;\r\n    mapping(uint256 => crowdFund) public crowdFundings;\r\n    mapping(uint256 => bool) public crowdFundExists;\r\n    uint256[] public campaignNos;\r\n    uint256 storyCount = 0;\r\n    uint256 crowdFundCount = 0;\r\n    address public intermediary = 0x4C6CC2B30A8b9630cC897589cCA40c83609C77a8;\r\n\r\n    function getStoryCount() view public returns(uint256) {\r\n        return storyCount;\r\n    }\r\n    function getBigStoryChapterCount(uint256 storyNo) view public returns(uint256) {\r\n        return bigStories[storyNo].totalChapters;\r\n    }\r\n    function getCrowdFundAvail(uint256 storyNo, uint256 chapterNo) view public returns(bool) {\r\n        return crowdFundings[storyNo * 100 + chapterNo].crowdFundAvail;\r\n    }\r\n\r\n    function createStory(string memory storyName, string memory genre, string memory cid, uint256 _target, uint256 _deadline) external {\r\n        require(_deadline > 0,\"Deadline Should be atleast 1 day from creation of crowdFunding\");\r\n        bigStory storage newStory = bigStories[storyCount];\r\n        newStory.storyNo = storyCount;\r\n        storyCount++;\r\n        newStory.accountOwnerAddr = msg.sender;\r\n        newStory.genre = genre;\r\n        newStory.storyName = storyName;\r\n        newStory.totalChapters = 1;\r\n        newStory.target = _target;\r\n        newStory.deadline = _deadline;\r\n        newStory.timestamp = block.timestamp;\r\n        \r\n        newStory.topOption = 0;\r\n        newStory.chapter.push(chapters(1, cid, msg.sender));\r\n\r\n        emit StoryCreated(newStory.storyNo, newStory.accountOwnerAddr, newStory.storyName, newStory.genre, newStory.target, newStory.deadline, newStory.totalChapters);\r\n    }\r\n\r\n    function CreateCrowdFund(uint256 storyNo, uint256 chapterNo, string memory cid) external {\r\n        bigStory storage selectedStory = bigStories[storyNo];\r\n        uint256 crowdFundKey = storyNo * 100 + chapterNo;\r\n        if(!crowdFundExists[crowdFundKey]) {\r\n            crowdFund storage newCrowdFund = crowdFundings[crowdFundKey];\r\n            newCrowdFund.crowdFundNo = crowdFundCount;\r\n            crowdFundCount++;\r\n            newCrowdFund.storyNo = storyNo;\r\n            newCrowdFund.chapterNo = chapterNo;\r\n            newCrowdFund.target = selectedStory.target;\r\n            newCrowdFund.deadline = selectedStory.timestamp + (selectedStory.deadline * 24 * 3600);\r\n            newCrowdFund.storyOwner = selectedStory.accountOwnerAddr;\r\n            newCrowdFund.options.push(option(0, cid, msg.sender, new address[](0), new uint256[](0), 0));\r\n            crowdFundExists[crowdFundKey] = true;\r\n            campaignNos.push(crowdFundKey);\r\n            newCrowdFund.crowdFundAvail = true;\r\n            newCrowdFund.timestamp = block.timestamp;\r\n            \r\n            selectedStory.chapter.push(chapters(chapterNo, cid, msg.sender));\r\n            selectedStory.topOption = 0;\r\n            emit CrowdFundCreated(newCrowdFund.crowdFundNo, newCrowdFund.storyNo, newCrowdFund.chapterNo, newCrowdFund.target, newCrowdFund.deadline, newCrowdFund.options);\r\n        }else{\r\n            crowdFund storage newCrowdFund = crowdFundings[crowdFundKey];\r\n            if(newCrowdFund.crowdFundAvail)\r\n            {\r\n                uint256 newOption = newCrowdFund.options[newCrowdFund.options.length - 1].optionNo + 1;\r\n                newCrowdFund.options.push(option(newOption,cid,msg.sender,new address[](0), new uint256[](0), 0));\r\n            }  \r\n            emit OptionCreated(newCrowdFund.crowdFundNo,newCrowdFund.options[newCrowdFund.options.length - 1].optionNo,newCrowdFund.options[newCrowdFund.options.length - 1].cid,newCrowdFund.options[newCrowdFund.options.length - 1].writer,newCrowdFund.options[newCrowdFund.options.length - 1].amtCollected);  \r\n        }\r\n    }\r\n\r\n    function getBigStories() external view returns (bigStory[] memory){\r\n        bigStory[] memory newList = new bigStory[](storyCount);\r\n        for(uint256 i = 0; i < storyCount; i++) {\r\n            bigStory storage newStory = bigStories[i];\r\n            newList[i] = newStory;\r\n        }\r\n        return newList;\r\n    }\r\n\r\n    function donateToCampaign(uint256 storyNo,uint256 chapterNo,uint256 optionNo) external payable{\r\n        \r\n        bigStory storage currentStory = bigStories[storyNo];\r\n        require(chapterNo == currentStory.totalChapters+1, \"Please crowd fund the latest chapter!\");\r\n\r\n        uint256 crowdFundKey = storyNo * 100 + chapterNo;\r\n        crowdFund storage currentCrowdFund = crowdFundings[crowdFundKey];\r\n        option storage currentOption = currentCrowdFund.options[optionNo];\r\n        require(block.timestamp < (currentCrowdFund.timestamp + currentCrowdFund.deadline) && currentOption.amtCollected <= currentCrowdFund.target * (1 ether), \"Crowd Funding for this chapter has been closed!\");\r\n        \r\n        currentOption.amtCollected += msg.value;\r\n        currentOption.donators.push(msg.sender);\r\n        currentOption.donations.push(msg.value);\r\n\r\n        if(currentOption.amtCollected > currentCrowdFund.options[currentStory.topOption].amtCollected)\r\n        {\r\n            currentStory.topOption = optionNo;\r\n            currentStory.chapter[currentStory.totalChapters] = chapters(chapterNo, currentOption.cid, currentOption.writer);\r\n        }\r\n\r\n        if(!(block.timestamp < (currentCrowdFund.timestamp + currentCrowdFund.deadline) && currentOption.amtCollected < currentCrowdFund.target * (1 ether)))\r\n        {\r\n            currentCrowdFund.crowdFundAvail = false;\r\n            currentStory.totalChapters++;\r\n        }\r\n        (bool sent,) = payable(currentOption.writer).call{value: msg.value}(\"Your story got a new donation\");\r\n        if(sent){}\r\n\r\n    }\r\n\r\n    function getCampaign() external view returns (crowdFund[] memory) {\r\n        crowdFund[] memory newList = new crowdFund[](campaignNos.length);\r\n        for(uint256 i = 0; i < campaignNos.length; i++) {\r\n            crowdFund storage newCrowdFund = crowdFundings[campaignNos[i]];\r\n            newList[i] = newCrowdFund;\r\n        }\r\n        return newList;\r\n    }\r\n\r\n    function getCampaignByKey(uint256 storyNo,uint256 chapterNo) external view returns (crowdFund memory) {\r\n        uint256 crowdFundKey = storyNo * 100 + chapterNo;\r\n        crowdFund storage newList = crowdFundings[crowdFundKey];\r\n        return newList;\r\n    }\r\n}",
  "sourcePath": "C:\\Users\\laksh\\Downloads\\StoryBook_App\\Backend\\contracts\\CrowdFunding.sol",
  "compiler": {
    "name": "solc",
    "version": "0.8.13+commit.abaa5c0e.Emscripten.clang"
  },
  "schemaVersion": "3.4.16",
  "updatedAt": "2024-04-01T03:26:40.465Z",
  "networkType": "ethereum",
  "devdoc": {
    "kind": "dev",
    "methods": {},
    "version": 1
  },
  "userdoc": {
    "kind": "user",
    "methods": {},
    "version": 1
  }
}